{
  "address": "0x61ec71F1Fd37ecc20d695E83F3D68e82bEfe8443",
  "abi": [
    {
      "inputs": [
        {
          "internalType": "address",
          "name": "initialAdmin",
          "type": "address"
        }
      ],
      "stateMutability": "nonpayable",
      "type": "constructor"
    },
    {
      "anonymous": false,
      "inputs": [
        {
          "indexed": true,
          "internalType": "address",
          "name": "creator",
          "type": "address"
        },
        {
          "indexed": true,
          "internalType": "address",
          "name": "operator",
          "type": "address"
        },
        {
          "indexed": false,
          "internalType": "uint256",
          "name": "id",
          "type": "uint256"
        },
        {
          "indexed": false,
          "internalType": "address",
          "name": "market",
          "type": "address"
        }
      ],
      "name": "MarketCreated",
      "type": "event"
    },
    {
      "anonymous": false,
      "inputs": [
        {
          "indexed": true,
          "internalType": "bytes32",
          "name": "role",
          "type": "bytes32"
        },
        {
          "indexed": true,
          "internalType": "bytes32",
          "name": "previousAdminRole",
          "type": "bytes32"
        },
        {
          "indexed": true,
          "internalType": "bytes32",
          "name": "newAdminRole",
          "type": "bytes32"
        }
      ],
      "name": "RoleAdminChanged",
      "type": "event"
    },
    {
      "anonymous": false,
      "inputs": [
        {
          "indexed": true,
          "internalType": "bytes32",
          "name": "role",
          "type": "bytes32"
        },
        {
          "indexed": true,
          "internalType": "address",
          "name": "account",
          "type": "address"
        },
        {
          "indexed": true,
          "internalType": "address",
          "name": "sender",
          "type": "address"
        }
      ],
      "name": "RoleGranted",
      "type": "event"
    },
    {
      "anonymous": false,
      "inputs": [
        {
          "indexed": true,
          "internalType": "bytes32",
          "name": "role",
          "type": "bytes32"
        },
        {
          "indexed": true,
          "internalType": "address",
          "name": "account",
          "type": "address"
        },
        {
          "indexed": true,
          "internalType": "address",
          "name": "sender",
          "type": "address"
        }
      ],
      "name": "RoleRevoked",
      "type": "event"
    },
    {
      "inputs": [],
      "name": "ADMIN_ROLE",
      "outputs": [
        {
          "internalType": "bytes32",
          "name": "",
          "type": "bytes32"
        }
      ],
      "stateMutability": "view",
      "type": "function"
    },
    {
      "inputs": [],
      "name": "CALLER_ROLE",
      "outputs": [
        {
          "internalType": "bytes32",
          "name": "",
          "type": "bytes32"
        }
      ],
      "stateMutability": "view",
      "type": "function"
    },
    {
      "inputs": [],
      "name": "DEFAULT_ADMIN_ROLE",
      "outputs": [
        {
          "internalType": "bytes32",
          "name": "",
          "type": "bytes32"
        }
      ],
      "stateMutability": "view",
      "type": "function"
    },
    {
      "inputs": [],
      "name": "MARKET_OPERATOR_ROLE",
      "outputs": [
        {
          "internalType": "bytes32",
          "name": "",
          "type": "bytes32"
        }
      ],
      "stateMutability": "view",
      "type": "function"
    },
    {
      "inputs": [],
      "name": "PERMIT2",
      "outputs": [
        {
          "internalType": "address",
          "name": "",
          "type": "address"
        }
      ],
      "stateMutability": "view",
      "type": "function"
    },
    {
      "inputs": [
        {
          "internalType": "address",
          "name": "account",
          "type": "address"
        }
      ],
      "name": "addAdmin",
      "outputs": [],
      "stateMutability": "nonpayable",
      "type": "function"
    },
    {
      "inputs": [
        {
          "internalType": "address",
          "name": "collateral",
          "type": "address"
        }
      ],
      "name": "addAllowedCollateral",
      "outputs": [],
      "stateMutability": "nonpayable",
      "type": "function"
    },
    {
      "inputs": [
        {
          "internalType": "address",
          "name": "oracle",
          "type": "address"
        }
      ],
      "name": "addAllowedOracle",
      "outputs": [],
      "stateMutability": "nonpayable",
      "type": "function"
    },
    {
      "inputs": [
        {
          "internalType": "address",
          "name": "receiver",
          "type": "address"
        }
      ],
      "name": "addAllowedReceiver",
      "outputs": [],
      "stateMutability": "nonpayable",
      "type": "function"
    },
    {
      "inputs": [
        {
          "internalType": "address",
          "name": "account",
          "type": "address"
        }
      ],
      "name": "addCaller",
      "outputs": [],
      "stateMutability": "nonpayable",
      "type": "function"
    },
    {
      "inputs": [
        {
          "internalType": "address",
          "name": "account",
          "type": "address"
        }
      ],
      "name": "addMarketOperator",
      "outputs": [],
      "stateMutability": "nonpayable",
      "type": "function"
    },
    {
      "inputs": [
        {
          "internalType": "address",
          "name": "collateral",
          "type": "address"
        }
      ],
      "name": "addOwnedCollateral",
      "outputs": [],
      "stateMutability": "nonpayable",
      "type": "function"
    },
    {
      "inputs": [
        {
          "internalType": "address",
          "name": "",
          "type": "address"
        }
      ],
      "name": "allowedCollaterals",
      "outputs": [
        {
          "internalType": "bool",
          "name": "",
          "type": "bool"
        }
      ],
      "stateMutability": "view",
      "type": "function"
    },
    {
      "inputs": [
        {
          "internalType": "address",
          "name": "",
          "type": "address"
        }
      ],
      "name": "allowedOracles",
      "outputs": [
        {
          "internalType": "bool",
          "name": "",
          "type": "bool"
        }
      ],
      "stateMutability": "view",
      "type": "function"
    },
    {
      "inputs": [
        {
          "internalType": "address",
          "name": "",
          "type": "address"
        }
      ],
      "name": "allowedReceivers",
      "outputs": [
        {
          "internalType": "bool",
          "name": "",
          "type": "bool"
        }
      ],
      "stateMutability": "view",
      "type": "function"
    },
    {
      "inputs": [
        {
          "internalType": "address",
          "name": "account",
          "type": "address"
        },
        {
          "internalType": "uint256",
          "name": "marketId",
          "type": "uint256"
        },
        {
          "internalType": "uint256",
          "name": "outcome",
          "type": "uint256"
        },
        {
          "internalType": "int128",
          "name": "sharesAmount",
          "type": "int128"
        },
        {
          "internalType": "uint256",
          "name": "maxAmountIn",
          "type": "uint256"
        },
        {
          "internalType": "uint256",
          "name": "nonce",
          "type": "uint256"
        },
        {
          "internalType": "uint256",
          "name": "deadline",
          "type": "uint256"
        },
        {
          "internalType": "bytes",
          "name": "sig",
          "type": "bytes"
        }
      ],
      "name": "buyMarketSharesFor",
      "outputs": [
        {
          "internalType": "uint256",
          "name": "amountIn",
          "type": "uint256"
        }
      ],
      "stateMutability": "nonpayable",
      "type": "function"
    },
    {
      "inputs": [
        {
          "internalType": "address",
          "name": "account",
          "type": "address"
        },
        {
          "internalType": "address",
          "name": "payer",
          "type": "address"
        },
        {
          "internalType": "uint256",
          "name": "marketId",
          "type": "uint256"
        },
        {
          "internalType": "uint256",
          "name": "outcome",
          "type": "uint256"
        },
        {
          "internalType": "int128",
          "name": "sharesAmount",
          "type": "int128"
        },
        {
          "internalType": "uint256",
          "name": "maxAmountIn",
          "type": "uint256"
        },
        {
          "internalType": "uint256",
          "name": "nonce",
          "type": "uint256"
        },
        {
          "internalType": "uint256",
          "name": "deadline",
          "type": "uint256"
        },
        {
          "internalType": "bytes",
          "name": "sig",
          "type": "bytes"
        }
      ],
      "name": "buyMarketSharesForWithPayer",
      "outputs": [
        {
          "internalType": "uint256",
          "name": "amountIn",
          "type": "uint256"
        }
      ],
      "stateMutability": "nonpayable",
      "type": "function"
    },
    {
      "inputs": [
        {
          "components": [
            {
              "internalType": "string",
              "name": "question",
              "type": "string"
            },
            {
              "internalType": "string",
              "name": "resolutionCriteria",
              "type": "string"
            },
            {
              "internalType": "string",
              "name": "imageURL",
              "type": "string"
            },
            {
              "internalType": "string",
              "name": "category",
              "type": "string"
            },
            {
              "internalType": "string",
              "name": "outcomes",
              "type": "string"
            },
            {
              "internalType": "address",
              "name": "creator",
              "type": "address"
            },
            {
              "internalType": "address",
              "name": "operator",
              "type": "address"
            },
            {
              "internalType": "address",
              "name": "market",
              "type": "address"
            },
            {
              "internalType": "uint256",
              "name": "startTimestamp",
              "type": "uint256"
            },
            {
              "internalType": "uint256",
              "name": "endTimestamp",
              "type": "uint256"
            },
            {
              "internalType": "address",
              "name": "collateral",
              "type": "address"
            }
          ],
          "internalType": "struct PrecogMasterV8.MarketData",
          "name": "data",
          "type": "tuple"
        },
        {
          "components": [
            {
              "internalType": "address",
              "name": "oracle",
              "type": "address"
            },
            {
              "internalType": "uint256",
              "name": "totalOutcomes",
              "type": "uint256"
            },
            {
              "internalType": "uint256",
              "name": "liquidity",
              "type": "uint256"
            },
            {
              "internalType": "uint256",
              "name": "overround",
              "type": "uint256"
            },
            {
              "internalType": "int256",
              "name": "sellFeeFactor",
              "type": "int256"
            },
            {
              "internalType": "uint256",
              "name": "collateralFunding",
              "type": "uint256"
            },
            {
              "internalType": "address",
              "name": "collateralFunder",
              "type": "address"
            }
          ],
          "internalType": "struct PrecogMasterV8.MarketConfig",
          "name": "config",
          "type": "tuple"
        }
      ],
      "name": "createCustomMarket",
      "outputs": [
        {
          "internalType": "uint256",
          "name": "newMarketId",
          "type": "uint256"
        }
      ],
      "stateMutability": "nonpayable",
      "type": "function"
    },
    {
      "inputs": [
        {
          "components": [
            {
              "internalType": "string",
              "name": "question",
              "type": "string"
            },
            {
              "internalType": "string",
              "name": "resolutionCriteria",
              "type": "string"
            },
            {
              "internalType": "string",
              "name": "imageURL",
              "type": "string"
            },
            {
              "internalType": "string",
              "name": "category",
              "type": "string"
            },
            {
              "internalType": "string",
              "name": "outcomes",
              "type": "string"
            },
            {
              "internalType": "address",
              "name": "creator",
              "type": "address"
            },
            {
              "internalType": "address",
              "name": "operator",
              "type": "address"
            },
            {
              "internalType": "address",
              "name": "market",
              "type": "address"
            },
            {
              "internalType": "uint256",
              "name": "startTimestamp",
              "type": "uint256"
            },
            {
              "internalType": "uint256",
              "name": "endTimestamp",
              "type": "uint256"
            },
            {
              "internalType": "address",
              "name": "collateral",
              "type": "address"
            }
          ],
          "internalType": "struct PrecogMasterV8.MarketData",
          "name": "data",
          "type": "tuple"
        },
        {
          "components": [
            {
              "internalType": "address",
              "name": "oracle",
              "type": "address"
            },
            {
              "internalType": "uint256",
              "name": "totalOutcomes",
              "type": "uint256"
            },
            {
              "internalType": "uint256",
              "name": "liquidity",
              "type": "uint256"
            },
            {
              "internalType": "uint256",
              "name": "overround",
              "type": "uint256"
            },
            {
              "internalType": "int256",
              "name": "sellFeeFactor",
              "type": "int256"
            },
            {
              "internalType": "uint256",
              "name": "collateralFunding",
              "type": "uint256"
            },
            {
              "internalType": "address",
              "name": "collateralFunder",
              "type": "address"
            }
          ],
          "internalType": "struct PrecogMasterV8.MarketConfig",
          "name": "config",
          "type": "tuple"
        }
      ],
      "name": "createMarket",
      "outputs": [
        {
          "internalType": "uint256",
          "name": "newMarketId",
          "type": "uint256"
        }
      ],
      "stateMutability": "nonpayable",
      "type": "function"
    },
    {
      "inputs": [],
      "name": "createdMarkets",
      "outputs": [
        {
          "internalType": "uint256",
          "name": "",
          "type": "uint256"
        }
      ],
      "stateMutability": "view",
      "type": "function"
    },
    {
      "inputs": [],
      "name": "getMarketsConfigs",
      "outputs": [
        {
          "internalType": "address",
          "name": "implementation",
          "type": "address"
        },
        {
          "internalType": "uint256",
          "name": "minOverround",
          "type": "uint256"
        },
        {
          "internalType": "int256",
          "name": "minSellFeeFactor",
          "type": "int256"
        },
        {
          "internalType": "uint256",
          "name": "feeFactor",
          "type": "uint256"
        }
      ],
      "stateMutability": "view",
      "type": "function"
    },
    {
      "inputs": [
        {
          "internalType": "bytes32",
          "name": "role",
          "type": "bytes32"
        }
      ],
      "name": "getRoleAdmin",
      "outputs": [
        {
          "internalType": "bytes32",
          "name": "",
          "type": "bytes32"
        }
      ],
      "stateMutability": "view",
      "type": "function"
    },
    {
      "inputs": [
        {
          "internalType": "bytes32",
          "name": "role",
          "type": "bytes32"
        },
        {
          "internalType": "uint256",
          "name": "index",
          "type": "uint256"
        }
      ],
      "name": "getRoleMember",
      "outputs": [
        {
          "internalType": "address",
          "name": "",
          "type": "address"
        }
      ],
      "stateMutability": "view",
      "type": "function"
    },
    {
      "inputs": [
        {
          "internalType": "bytes32",
          "name": "role",
          "type": "bytes32"
        }
      ],
      "name": "getRoleMemberCount",
      "outputs": [
        {
          "internalType": "uint256",
          "name": "",
          "type": "uint256"
        }
      ],
      "stateMutability": "view",
      "type": "function"
    },
    {
      "inputs": [
        {
          "internalType": "bytes32",
          "name": "role",
          "type": "bytes32"
        },
        {
          "internalType": "address",
          "name": "account",
          "type": "address"
        }
      ],
      "name": "grantRole",
      "outputs": [],
      "stateMutability": "nonpayable",
      "type": "function"
    },
    {
      "inputs": [
        {
          "internalType": "bytes32",
          "name": "role",
          "type": "bytes32"
        },
        {
          "internalType": "address",
          "name": "account",
          "type": "address"
        }
      ],
      "name": "hasRole",
      "outputs": [
        {
          "internalType": "bool",
          "name": "",
          "type": "bool"
        }
      ],
      "stateMutability": "view",
      "type": "function"
    },
    {
      "inputs": [
        {
          "internalType": "uint256",
          "name": "marketId",
          "type": "uint256"
        },
        {
          "internalType": "address",
          "name": "account",
          "type": "address"
        }
      ],
      "name": "marketAccountInfo",
      "outputs": [
        {
          "internalType": "uint256",
          "name": "buys",
          "type": "uint256"
        },
        {
          "internalType": "uint256",
          "name": "sells",
          "type": "uint256"
        },
        {
          "internalType": "uint256",
          "name": "deposited",
          "type": "uint256"
        },
        {
          "internalType": "uint256",
          "name": "withdrawn",
          "type": "uint256"
        },
        {
          "internalType": "uint256",
          "name": "redeemed",
          "type": "uint256"
        },
        {
          "internalType": "uint256[]",
          "name": "balances",
          "type": "uint256[]"
        }
      ],
      "stateMutability": "view",
      "type": "function"
    },
    {
      "inputs": [
        {
          "internalType": "uint256",
          "name": "marketId",
          "type": "uint256"
        },
        {
          "internalType": "uint256",
          "name": "outcome",
          "type": "uint256"
        },
        {
          "internalType": "int128",
          "name": "sharesAmount",
          "type": "int128"
        },
        {
          "internalType": "uint256",
          "name": "maxAmountIn",
          "type": "uint256"
        }
      ],
      "name": "marketBuy",
      "outputs": [
        {
          "internalType": "uint256",
          "name": "amountIn",
          "type": "uint256"
        }
      ],
      "stateMutability": "nonpayable",
      "type": "function"
    },
    {
      "inputs": [
        {
          "internalType": "uint256",
          "name": "marketId",
          "type": "uint256"
        },
        {
          "internalType": "uint256",
          "name": "outcome",
          "type": "uint256"
        },
        {
          "internalType": "int128",
          "name": "sharesAmount",
          "type": "int128"
        }
      ],
      "name": "marketBuyPrice",
      "outputs": [
        {
          "internalType": "int128",
          "name": "tokenCost",
          "type": "int128"
        }
      ],
      "stateMutability": "view",
      "type": "function"
    },
    {
      "inputs": [
        {
          "internalType": "uint256",
          "name": "marketId",
          "type": "uint256"
        },
        {
          "internalType": "uint256",
          "name": "outcome",
          "type": "uint256"
        },
        {
          "internalType": "int128",
          "name": "sharesAmount",
          "type": "int128"
        },
        {
          "internalType": "uint256",
          "name": "maxAmountIn",
          "type": "uint256"
        },
        {
          "internalType": "uint256",
          "name": "deadline",
          "type": "uint256"
        },
        {
          "internalType": "uint8",
          "name": "v",
          "type": "uint8"
        },
        {
          "internalType": "bytes32",
          "name": "r",
          "type": "bytes32"
        },
        {
          "internalType": "bytes32",
          "name": "s",
          "type": "bytes32"
        }
      ],
      "name": "marketBuyWithPermit",
      "outputs": [
        {
          "internalType": "uint256",
          "name": "amountIn",
          "type": "uint256"
        }
      ],
      "stateMutability": "nonpayable",
      "type": "function"
    },
    {
      "inputs": [
        {
          "internalType": "uint256",
          "name": "marketId",
          "type": "uint256"
        },
        {
          "internalType": "uint256",
          "name": "outcome",
          "type": "uint256"
        },
        {
          "internalType": "int128",
          "name": "sharesAmount",
          "type": "int128"
        },
        {
          "internalType": "uint256",
          "name": "maxAmountIn",
          "type": "uint256"
        },
        {
          "internalType": "uint256",
          "name": "nonce",
          "type": "uint256"
        },
        {
          "internalType": "uint256",
          "name": "deadline",
          "type": "uint256"
        },
        {
          "internalType": "bytes",
          "name": "sig",
          "type": "bytes"
        }
      ],
      "name": "marketBuyWithPermit2",
      "outputs": [
        {
          "internalType": "uint256",
          "name": "amountIn",
          "type": "uint256"
        }
      ],
      "stateMutability": "nonpayable",
      "type": "function"
    },
    {
      "inputs": [
        {
          "internalType": "uint256",
          "name": "marketId",
          "type": "uint256"
        }
      ],
      "name": "marketCollateralInfo",
      "outputs": [
        {
          "internalType": "address",
          "name": "token",
          "type": "address"
        },
        {
          "internalType": "string",
          "name": "name",
          "type": "string"
        },
        {
          "internalType": "string",
          "name": "symbol",
          "type": "string"
        },
        {
          "internalType": "uint8",
          "name": "decimals",
          "type": "uint8"
        }
      ],
      "stateMutability": "view",
      "type": "function"
    },
    {
      "inputs": [
        {
          "internalType": "uint256",
          "name": "marketId",
          "type": "uint256"
        }
      ],
      "name": "marketPrices",
      "outputs": [
        {
          "internalType": "uint256[]",
          "name": "buyPrices",
          "type": "uint256[]"
        },
        {
          "internalType": "uint256[]",
          "name": "sellPrices",
          "type": "uint256[]"
        }
      ],
      "stateMutability": "view",
      "type": "function"
    },
    {
      "inputs": [
        {
          "internalType": "uint256",
          "name": "marketId",
          "type": "uint256"
        }
      ],
      "name": "marketRedeemShares",
      "outputs": [
        {
          "internalType": "uint256",
          "name": "shares",
          "type": "uint256"
        }
      ],
      "stateMutability": "nonpayable",
      "type": "function"
    },
    {
      "inputs": [
        {
          "internalType": "uint256",
          "name": "marketId",
          "type": "uint256"
        }
      ],
      "name": "marketResultInfo",
      "outputs": [
        {
          "internalType": "uint256",
          "name": "result",
          "type": "uint256"
        },
        {
          "internalType": "uint256",
          "name": "closed",
          "type": "uint256"
        },
        {
          "internalType": "address",
          "name": "reporter",
          "type": "address"
        }
      ],
      "stateMutability": "view",
      "type": "function"
    },
    {
      "inputs": [
        {
          "internalType": "uint256",
          "name": "marketId",
          "type": "uint256"
        },
        {
          "internalType": "uint256",
          "name": "outcome",
          "type": "uint256"
        },
        {
          "internalType": "int128",
          "name": "sharesAmount",
          "type": "int128"
        },
        {
          "internalType": "uint256",
          "name": "minAmountOut",
          "type": "uint256"
        }
      ],
      "name": "marketSell",
      "outputs": [
        {
          "internalType": "uint256",
          "name": "amountOut",
          "type": "uint256"
        }
      ],
      "stateMutability": "nonpayable",
      "type": "function"
    },
    {
      "inputs": [
        {
          "internalType": "uint256",
          "name": "marketId",
          "type": "uint256"
        },
        {
          "internalType": "uint256",
          "name": "outcome",
          "type": "uint256"
        },
        {
          "internalType": "int128",
          "name": "sharesAmount",
          "type": "int128"
        }
      ],
      "name": "marketSellPrice",
      "outputs": [
        {
          "internalType": "int128",
          "name": "tokenReturn",
          "type": "int128"
        }
      ],
      "stateMutability": "view",
      "type": "function"
    },
    {
      "inputs": [
        {
          "internalType": "uint256",
          "name": "marketId",
          "type": "uint256"
        }
      ],
      "name": "marketSetupInfo",
      "outputs": [
        {
          "internalType": "int128",
          "name": "initialShares",
          "type": "int128"
        },
        {
          "internalType": "int128",
          "name": "alpha",
          "type": "int128"
        },
        {
          "internalType": "uint256",
          "name": "outcomes",
          "type": "uint256"
        },
        {
          "internalType": "int128",
          "name": "sellFeeFactor",
          "type": "int128"
        },
        {
          "internalType": "uint256",
          "name": "initialCollateral",
          "type": "uint256"
        }
      ],
      "stateMutability": "view",
      "type": "function"
    },
    {
      "inputs": [
        {
          "internalType": "uint256",
          "name": "marketId",
          "type": "uint256"
        }
      ],
      "name": "marketSharesInfo",
      "outputs": [
        {
          "internalType": "int128",
          "name": "totalShares",
          "type": "int128"
        },
        {
          "internalType": "int128[]",
          "name": "sharesBalances",
          "type": "int128[]"
        },
        {
          "internalType": "int128",
          "name": "redeemed",
          "type": "int128"
        },
        {
          "internalType": "int128",
          "name": "cost",
          "type": "int128"
        },
        {
          "internalType": "uint256",
          "name": "buys",
          "type": "uint256"
        },
        {
          "internalType": "uint256",
          "name": "sells",
          "type": "uint256"
        }
      ],
      "stateMutability": "view",
      "type": "function"
    },
    {
      "inputs": [
        {
          "internalType": "uint256",
          "name": "marketId",
          "type": "uint256"
        },
        {
          "internalType": "address",
          "name": "newOwner",
          "type": "address"
        }
      ],
      "name": "marketTransferOwnership",
      "outputs": [],
      "stateMutability": "nonpayable",
      "type": "function"
    },
    {
      "inputs": [
        {
          "internalType": "uint256",
          "name": "marketId",
          "type": "uint256"
        },
        {
          "internalType": "address",
          "name": "marketToken",
          "type": "address"
        }
      ],
      "name": "marketWithdraw",
      "outputs": [],
      "stateMutability": "nonpayable",
      "type": "function"
    },
    {
      "inputs": [
        {
          "internalType": "uint256",
          "name": "",
          "type": "uint256"
        }
      ],
      "name": "markets",
      "outputs": [
        {
          "internalType": "string",
          "name": "question",
          "type": "string"
        },
        {
          "internalType": "string",
          "name": "resolutionCriteria",
          "type": "string"
        },
        {
          "internalType": "string",
          "name": "imageURL",
          "type": "string"
        },
        {
          "internalType": "string",
          "name": "category",
          "type": "string"
        },
        {
          "internalType": "string",
          "name": "outcomes",
          "type": "string"
        },
        {
          "internalType": "address",
          "name": "creator",
          "type": "address"
        },
        {
          "internalType": "address",
          "name": "operator",
          "type": "address"
        },
        {
          "internalType": "address",
          "name": "market",
          "type": "address"
        },
        {
          "internalType": "uint256",
          "name": "startTimestamp",
          "type": "uint256"
        },
        {
          "internalType": "uint256",
          "name": "endTimestamp",
          "type": "uint256"
        },
        {
          "internalType": "address",
          "name": "collateral",
          "type": "address"
        }
      ],
      "stateMutability": "view",
      "type": "function"
    },
    {
      "inputs": [
        {
          "internalType": "address",
          "name": "",
          "type": "address"
        }
      ],
      "name": "ownedCollaterals",
      "outputs": [
        {
          "internalType": "bool",
          "name": "",
          "type": "bool"
        }
      ],
      "stateMutability": "view",
      "type": "function"
    },
    {
      "inputs": [
        {
          "internalType": "uint256",
          "name": "marketId",
          "type": "uint256"
        },
        {
          "internalType": "uint256",
          "name": "outcome",
          "type": "uint256"
        },
        {
          "internalType": "int128",
          "name": "sharesAmount",
          "type": "int128"
        },
        {
          "internalType": "uint256",
          "name": "maxAmountIn",
          "type": "uint256"
        }
      ],
      "name": "ownedMarketBuy",
      "outputs": [
        {
          "internalType": "uint256",
          "name": "amountIn",
          "type": "uint256"
        }
      ],
      "stateMutability": "nonpayable",
      "type": "function"
    },
    {
      "inputs": [
        {
          "internalType": "address",
          "name": "ownedToken",
          "type": "address"
        },
        {
          "internalType": "address",
          "name": "from",
          "type": "address"
        },
        {
          "internalType": "uint256",
          "name": "amount",
          "type": "uint256"
        }
      ],
      "name": "ownedTokenBurn",
      "outputs": [],
      "stateMutability": "nonpayable",
      "type": "function"
    },
    {
      "inputs": [
        {
          "internalType": "address",
          "name": "ownedToken",
          "type": "address"
        },
        {
          "internalType": "address",
          "name": "to",
          "type": "address"
        },
        {
          "internalType": "uint256",
          "name": "amount",
          "type": "uint256"
        }
      ],
      "name": "ownedTokenMint",
      "outputs": [],
      "stateMutability": "nonpayable",
      "type": "function"
    },
    {
      "inputs": [
        {
          "internalType": "address",
          "name": "ownedToken",
          "type": "address"
        },
        {
          "internalType": "address",
          "name": "from",
          "type": "address"
        },
        {
          "internalType": "address",
          "name": "to",
          "type": "address"
        },
        {
          "internalType": "uint256",
          "name": "amount",
          "type": "uint256"
        }
      ],
      "name": "ownedTokenMove",
      "outputs": [],
      "stateMutability": "nonpayable",
      "type": "function"
    },
    {
      "inputs": [
        {
          "internalType": "address",
          "name": "ownedToken",
          "type": "address"
        },
        {
          "internalType": "address",
          "name": "newPrecogMaster",
          "type": "address"
        }
      ],
      "name": "ownedTokenTransferOwnership",
      "outputs": [],
      "stateMutability": "nonpayable",
      "type": "function"
    },
    {
      "inputs": [
        {
          "internalType": "address",
          "name": "account",
          "type": "address"
        }
      ],
      "name": "removeAdmin",
      "outputs": [],
      "stateMutability": "nonpayable",
      "type": "function"
    },
    {
      "inputs": [
        {
          "internalType": "address",
          "name": "collateral",
          "type": "address"
        }
      ],
      "name": "removeAllowedCollateral",
      "outputs": [],
      "stateMutability": "nonpayable",
      "type": "function"
    },
    {
      "inputs": [
        {
          "internalType": "address",
          "name": "oracle",
          "type": "address"
        }
      ],
      "name": "removeAllowedOracle",
      "outputs": [],
      "stateMutability": "nonpayable",
      "type": "function"
    },
    {
      "inputs": [
        {
          "internalType": "address",
          "name": "receiver",
          "type": "address"
        }
      ],
      "name": "removeAllowedReceiver",
      "outputs": [],
      "stateMutability": "nonpayable",
      "type": "function"
    },
    {
      "inputs": [
        {
          "internalType": "address",
          "name": "account",
          "type": "address"
        }
      ],
      "name": "removeCaller",
      "outputs": [],
      "stateMutability": "nonpayable",
      "type": "function"
    },
    {
      "inputs": [
        {
          "internalType": "address",
          "name": "account",
          "type": "address"
        }
      ],
      "name": "removeMarketOperator",
      "outputs": [],
      "stateMutability": "nonpayable",
      "type": "function"
    },
    {
      "inputs": [
        {
          "internalType": "address",
          "name": "collateral",
          "type": "address"
        }
      ],
      "name": "removeOwnedCollateral",
      "outputs": [],
      "stateMutability": "nonpayable",
      "type": "function"
    },
    {
      "inputs": [
        {
          "internalType": "bytes32",
          "name": "role",
          "type": "bytes32"
        },
        {
          "internalType": "address",
          "name": "account",
          "type": "address"
        }
      ],
      "name": "renounceRole",
      "outputs": [],
      "stateMutability": "nonpayable",
      "type": "function"
    },
    {
      "inputs": [
        {
          "internalType": "bytes32",
          "name": "role",
          "type": "bytes32"
        },
        {
          "internalType": "address",
          "name": "account",
          "type": "address"
        }
      ],
      "name": "revokeRole",
      "outputs": [],
      "stateMutability": "nonpayable",
      "type": "function"
    },
    {
      "inputs": [
        {
          "internalType": "address",
          "name": "market",
          "type": "address"
        }
      ],
      "name": "setBaseMarket",
      "outputs": [],
      "stateMutability": "nonpayable",
      "type": "function"
    },
    {
      "inputs": [
        {
          "internalType": "uint256",
          "name": "overround",
          "type": "uint256"
        }
      ],
      "name": "setMarketMinOverround",
      "outputs": [],
      "stateMutability": "nonpayable",
      "type": "function"
    },
    {
      "inputs": [
        {
          "internalType": "int256",
          "name": "sellFeeFactor",
          "type": "int256"
        }
      ],
      "name": "setMarketMinSellFeeFactor",
      "outputs": [],
      "stateMutability": "nonpayable",
      "type": "function"
    },
    {
      "inputs": [
        {
          "internalType": "uint256",
          "name": "feeFactor",
          "type": "uint256"
        }
      ],
      "name": "setProtocolFeeFactor",
      "outputs": [],
      "stateMutability": "nonpayable",
      "type": "function"
    },
    {
      "inputs": [
        {
          "internalType": "uint256",
          "name": "id",
          "type": "uint256"
        },
        {
          "internalType": "string",
          "name": "question",
          "type": "string"
        },
        {
          "internalType": "string",
          "name": "resolutionCriteria",
          "type": "string"
        },
        {
          "internalType": "string",
          "name": "imageURL",
          "type": "string"
        },
        {
          "internalType": "string",
          "name": "category",
          "type": "string"
        },
        {
          "internalType": "string",
          "name": "outcomes",
          "type": "string"
        },
        {
          "internalType": "address",
          "name": "marketCreator",
          "type": "address"
        },
        {
          "internalType": "uint256",
          "name": "startTimestamp",
          "type": "uint256"
        },
        {
          "internalType": "uint256",
          "name": "endTimestamp",
          "type": "uint256"
        },
        {
          "internalType": "address",
          "name": "marketOracle",
          "type": "address"
        },
        {
          "internalType": "int256",
          "name": "sellFeeFactor",
          "type": "int256"
        }
      ],
      "name": "updateMarket",
      "outputs": [],
      "stateMutability": "nonpayable",
      "type": "function"
    },
    {
      "inputs": [
        {
          "internalType": "address",
          "name": "_token",
          "type": "address"
        }
      ],
      "name": "withdraw",
      "outputs": [
        {
          "internalType": "uint256",
          "name": "amount",
          "type": "uint256"
        }
      ],
      "stateMutability": "nonpayable",
      "type": "function"
    },
    {
      "inputs": [
        {
          "internalType": "uint256",
          "name": "marketId",
          "type": "uint256"
        }
      ],
      "name": "withdrawMarketCollateral",
      "outputs": [
        {
          "internalType": "uint256",
          "name": "amount",
          "type": "uint256"
        }
      ],
      "stateMutability": "nonpayable",
      "type": "function"
    },
    {
      "inputs": [
        {
          "internalType": "uint256",
          "name": "marketId",
          "type": "uint256"
        },
        {
          "internalType": "address",
          "name": "to",
          "type": "address"
        }
      ],
      "name": "withdrawMarketCollateralTo",
      "outputs": [
        {
          "internalType": "uint256",
          "name": "amount",
          "type": "uint256"
        }
      ],
      "stateMutability": "nonpayable",
      "type": "function"
    }
  ],
  "transactionHash": "0xe29782e56b9b8cb0adb16896be11f928bee5337d6f7c51004a4c90274d8c9b13",
  "args": [
    "0x9475A4C1BF5Fc80aE079303f14B523da19619c16"
  ],
  "numDeployments": 2,
  "solcInputHash": "e5cae983146befdbf659084fd6da39c6",
  "bytecode": "0x60806040523480156200001157600080fd5b506040516200617f3803806200617f833981016040819052620000349162000204565b620000416000826200009e565b6200007c7f843c3a00fa95510a35f425371231fd3fe4642e719cb4595160763d6d02594b506000805160206200615f833981519152620000ae565b620000976000805160206200615f833981519152826200009e565b5062000234565b620000aa828262000100565b5050565b600082815260208190526040808220600201549051839285917fbd79b86ffe0ab8e8776151514217cd7cacd52c909f66475c3af44e129f0b00ff9190a460009182526020829052604090912060020155565b60008281526020818152604090912062000125918390620039d462000179821b17901c565b15620000aa576200013562000199565b6001600160a01b0316816001600160a01b0316837f2f8788117e7eff1d82e926ec794901d17c78024a50270940304540a733656f0d60405160405180910390a45050565b600062000190836001600160a01b0384166200019d565b90505b92915050565b3390565b6000620001ab8383620001ec565b620001e35750815460018181018455600084815260208082209093018490558454848252828601909352604090209190915562000193565b50600062000193565b60009081526001919091016020526040902054151590565b60006020828403121562000216578081fd5b81516001600160a01b03811681146200022d578182fd5b9392505050565b615f1b80620002446000396000f3fe608060405234801561001057600080fd5b50600436106103eb5760003560e01c80638b2259c11161021a578063d547741f11610135578063ebbb5ffa116100c8578063f615f21b11610097578063f944a5ff1161007c578063f944a5ff14610900578063fa17f2f914610913578063fa92b90a1461092b576103eb565b8063f615f21b146108da578063f727b481146108ed576103eb565b8063ebbb5ffa1461088e578063ee4591fb146108a1578063eef21cd2146108b4578063f2fd5943146108c7576103eb565b8063dd929eb011610104578063dd929eb014610842578063e0b6eb2314610855578063e136befb14610868578063e617000f1461087b576103eb565b8063d547741f146107f6578063d5d2a70d14610809578063d6a0d22c1461081c578063d7b1ccfa1461082f576103eb565b8063b590b56f116101ad578063ca15c8731161017c578063ca15c873146107aa578063ce5696e8146107bd578063d33bfe4f146107d0578063d39f29de146107e3576103eb565b8063b590b56f1461074c578063ba2e368414610754578063baf81b8f14610767578063bc05b8061461078a576103eb565b80639f984e0b116101e95780639f984e0b146106e2578063a217fddf146106f5578063a9683f6e146106fd578063b1283e7714610722576103eb565b80638b2259c1146106965780639010d07c146106a957806391d14854146106bc5780639ac879e9146106cf576103eb565b80634047296c1161030a578063704802751161029d578063774237fc1161026c578063774237fc14610655578063776a761a1461065d5780637ff25fda1461067057806388079f0f14610683576103eb565b8063704802751461061457806370f4a7ae14610627578063747293fb1461063a57806375b238fc1461064d576103eb565b80635c61e219116102d95780635c61e219146105c6578063644eb0cf146105d95780636ab62a95146105ec5780636afdd850146105ff576103eb565b80634047296c146105695780634b84d3fe1461057c57806350535503146105a057806351cff8d9146105b3576103eb565b806330829a201161038257806336568abe1161035157806336568abe1461050b5780633ad6638c1461051e5780633af84cd4146105435780633cf2002514610556576103eb565b806330829a20146104b057806330cf204e146104c35780633204fff7146104d6578063331523b2146104f8576103eb565b80631559ac74116103be5780631559ac74146104555780631785f53c14610475578063248a9ca31461048a5780632f2ff15d1461049d576103eb565b80630dd47a1e146103f05780630e997a9514610419578063129c7ce41461042157806314aebade14610434575b600080fd5b6104036103fe3660046152a6565b61093e565b604051610410919061560e565b60405180910390f35b610403610b51565b61040361042f3660046152a6565b610b75565b610447610442366004614d9c565b610c81565b6040516104109291906155de565b610468610463366004614a98565b610d32565b6040516104109190615603565b610488610483366004614a98565b610d47565b005b610403610498366004614d9c565b610dba565b6104886104ab366004614db4565b610dd2565b6104886104be366004614db4565b610e39565b6104886104d1366004614a98565b610f2f565b6104e96104e4366004614d9c565b610f9f565b60405161041093929190615cc6565b610403610506366004614fcb565b611137565b610488610519366004614db4565b611348565b61053161052c366004614db4565b6113a9565b60405161041096959493929190615ce5565b610488610551366004614b08565b61150f565b610468610564366004614a98565b6115d6565b610488610577366004614a98565b6115eb565b61058f61058a366004614d9c565b611677565b604051610410959493929190615695565b6104886105ae366004614d9c565b611738565b6104036105c1366004614a98565b611783565b6104036105d4366004614b98565b61193a565b6104686105e7366004614a98565b611a91565b6104036105fa366004614fcb565b611aa6565b610607611af8565b60405161041091906154b1565b610488610622366004614a98565b611b0b565b610488610635366004614a98565b611b7b565b610488610648366004614a98565b611c08565b610403611c78565b610403611c9c565b61048861066b366004614b58565b611cc0565b61048861067e366004614a98565b611d84565b610488610691366004614d9c565b611df4565b6104886106a4366004614a98565b611e3f565b6106076106b7366004614dd8565b611f5d565b6104686106ca366004614db4565b611f75565b6104036106dd3660046152d4565b611f8d565b6104036106f0366004614d9c565b6120f0565b61040361230e565b61071061070b366004614d9c565b612313565b60405161041096959493929190615625565b610735610730366004614d9c565b6123d9565b6040516104109b9a999897969594939291906156c2565b6104036126fa565b610488610762366004614db4565b612700565b61077a610775366004614d9c565b6127d5565b6040516104109493929190615556565b61079d61079836600461526e565b61297c565b6040516104109190615617565b6104036107b8366004614d9c565b612a30565b6104886107cb366004614a98565b612a47565b6104036107de3660046152a6565b612ad3565b6104886107f1366004614b58565b612c2e565b610488610804366004614db4565b612cbb565b610403610817366004614c46565b612d14565b61040361082a366004615358565b612e9e565b61048861083d366004614ad0565b61303a565b610488610850366004614d9c565b6130c5565b610488610863366004614a98565b613110565b610488610876366004614a98565b6131a0565b610488610889366004615151565b61322c565b61040361089c366004614db4565b613556565b6104686108af366004614a98565b613681565b6104886108c2366004614a98565b613696565b6104036108d5366004614d9c565b613706565b6104886108e8366004614a98565b6137b0565b6104886108fb366004614a98565b613840565b61079d61090e36600461526e565b6138cc565b61091b613926565b60405161041094939291906155b8565b610488610939366004614a98565b613944565b600b5460009060ff1660011461096f5760405162461bcd60e51b8152600401610966906157e4565b60405180910390fd5b600b805460ff19166002908117909155600086815260209182526040808220600a01546001600160a01b0316808352600690935290205460ff166109c55760405162461bcd60e51b8152600401610966906158c0565b6040517fbb35783b0000000000000000000000000000000000000000000000000000000081526001600160a01b0382169063bb35783b90610a0e903390309088906004016154f1565b600060405180830381600087803b158015610a2857600080fd5b505af1158015610a3c573d6000803e3d6000fd5b505050600087815260026020526040908190206007015490517f63f082470000000000000000000000000000000000000000000000000000000081526001600160a01b0390911691506363f0824790610a9f90339030908a908a906004016154c5565b602060405180830381600087803b158015610ab957600080fd5b505af1158015610acd573d6000803e3d6000fd5b505050506040513d601f19601f82011682018060405250810190610af19190615139565b915082821115610b135760405162461bcd60e51b81526004016109669061592e565b82821015610b3a57610b3a33610b2985856139e9565b6001600160a01b0384169190613a46565b505b600b805460ff19166001179055949350505050565b7f55049dd3b89514f54f939cb6b3d0bd764d192f30d61ca6964b2cacf4a9134af181565b600b5460009060ff16600114610b9d5760405162461bcd60e51b8152600401610966906157e4565b600b805460ff1916600290811790915560008681526020919091526040908190206007015490517fc5d407670000000000000000000000000000000000000000000000000000000081526001600160a01b039091169063c5d4076790610c0d9033908190899089906004016154c5565b602060405180830381600087803b158015610c2757600080fd5b505af1158015610c3b573d6000803e3d6000fd5b505050506040513d601f19601f82011682018060405250810190610c5f9190615139565b905081811015610b3c5760405162461bcd60e51b81526004016109669061581b565b6000818152600260205260408082206007015481517fbd9a548b000000000000000000000000000000000000000000000000000000008152915160609384936001600160a01b039093169263bd9a548b9260048083019392829003018186803b158015610ced57600080fd5b505afa158015610d01573d6000803e3d6000fd5b505050506040513d6000823e601f3d908101601f19168201604052610d299190810190614d1b565b91509150915091565b60046020526000908152604090205460ff1681565b610d717fa49807205ce4d355092ef5a8a18f56e8913cf4a201fbe287825b095693c2177533611f75565b610d8d5760405162461bcd60e51b815260040161096690615ae6565b610db77fa49807205ce4d355092ef5a8a18f56e8913cf4a201fbe287825b095693c2177582612cbb565b50565b6000818152602081905260409020600201545b919050565b600082815260208190526040902060020154610df0906106ca613ac6565b610e2b5760405162461bcd60e51b815260040180806020018281038252602f815260200180615e08602f913960400191505060405180910390fd5b610e358282613aca565b5050565b610e637fa49807205ce4d355092ef5a8a18f56e8913cf4a201fbe287825b095693c2177533611f75565b610e7f5760405162461bcd60e51b815260040161096690615ae6565b600082815260026020526040908190206007015490517f51cff8d90000000000000000000000000000000000000000000000000000000081526001600160a01b03909116906351cff8d990610ed89084906004016154b1565b602060405180830381600087803b158015610ef257600080fd5b505af1158015610f06573d6000803e3d6000fd5b505050506040513d601f19601f82011682018060405250810190610f2a9190615139565b505050565b610f597fa49807205ce4d355092ef5a8a18f56e8913cf4a201fbe287825b095693c2177533611f75565b610f755760405162461bcd60e51b815260040161096690615ae6565b610db77f55049dd3b89514f54f939cb6b3d0bd764d192f30d61ca6964b2cacf4a9134af182610dd2565b60008181526002602090815260408083206007015481517f653721470000000000000000000000000000000000000000000000000000000081529151849384936001600160a01b03909316928392636537214792600480840193919291829003018186803b15801561101057600080fd5b505afa158015611024573d6000803e3d6000fd5b505050506040513d601f19601f820116820180604052508101906110489190615139565b9350806001600160a01b031663052d7c006040518163ffffffff1660e01b815260040160206040518083038186803b15801561108357600080fd5b505afa158015611097573d6000803e3d6000fd5b505050506040513d601f19601f820116820180604052508101906110bb9190615139565b9250806001600160a01b0316637dc0d1d06040518163ffffffff1660e01b815260040160206040518083038186803b1580156110f657600080fd5b505afa15801561110a573d6000803e3d6000fd5b505050506040513d601f19601f8201168201806040525081019061112e9190614ab4565b93959294505050565b60006111637f55049dd3b89514f54f939cb6b3d0bd764d192f30d61ca6964b2cacf4a9134af133611f75565b61117f5760405162461bcd60e51b815260040161096690615aaf565b82515161119e5760405162461bcd60e51b8152600401610966906158f7565b6000836020015151116111c35760405162461bcd60e51b815260040161096690615889565b6000836080015151116111e85760405162461bcd60e51b815260040161096690615965565b6101408301516001600160a01b031660009081526004602052604090205460ff166112255760405162461bcd60e51b815260040161096690615a41565b826101200151836101000151111561124f5760405162461bcd60e51b815260040161096690615b1d565b81516001600160a01b031660009081526003602052604090205460ff166112885760405162461bcd60e51b815260040161096690615b54565b8160a00151826040015110156112b05760405162461bcd60e51b815260040161096690615b8b565b600854826060015110156112d65760405162461bcd60e51b815260040161096690615852565b600954826080015112156112fc5760405162461bcd60e51b815260040161096690615a78565b60c08201516001600160a01b031633146113285760405162461bcd60e51b815260040161096690615776565b3360c0840152600060e084015261133f8383613b33565b90505b92915050565b611350613ac6565b6001600160a01b0316816001600160a01b03161461139f5760405162461bcd60e51b815260040180806020018281038252602f815260200180615eb7602f913960400191505060405180910390fd5b610e35828261407f565b6000828152600260205260408082206007015490517f28cdfaeb00000000000000000000000000000000000000000000000000000000815282918291829182916060916001600160a01b03169081906328cdfaeb9061140c908b906004016154b1565b60a06040518083038186803b15801561142457600080fd5b505afa158015611438573d6000803e3d6000fd5b505050506040513d601f19601f8201168201806040525081019061145c91906153c8565b6040517f05b4b371000000000000000000000000000000000000000000000000000000008152949b50929950909750955093506001600160a01b038216906305b4b371906114ae908b906004016154b1565b60006040518083038186803b1580156114c657600080fd5b505afa1580156114da573d6000803e3d6000fd5b505050506040513d6000823e601f3d908101601f191682016040526115029190810190614ce0565b9150509295509295509295565b6115397fa49807205ce4d355092ef5a8a18f56e8913cf4a201fbe287825b095693c2177533611f75565b6115555760405162461bcd60e51b815260040161096690615ae6565b6040517fbb35783b0000000000000000000000000000000000000000000000000000000081526001600160a01b0385169063bb35783b9061159e908690869086906004016154f1565b600060405180830381600087803b1580156115b857600080fd5b505af11580156115cc573d6000803e3d6000fd5b5050505050505050565b60056020526000908152604090205460ff1681565b6116157fa49807205ce4d355092ef5a8a18f56e8913cf4a201fbe287825b095693c2177533611f75565b6116315760405162461bcd60e51b815260040161096690615ae6565b6001600160a01b03811660009081526004602052604090205460ff1661165657600080fd5b6001600160a01b03166000908152600460205260409020805460ff19169055565b6000818152600260205260408082206007015481517f4eabd8bc000000000000000000000000000000000000000000000000000000008152915183928392839283926001600160a01b03909216918291634eabd8bc9160048082019260a092909190829003018186803b1580156116ed57600080fd5b505afa158015611701573d6000803e3d6000fd5b505050506040513d601f19601f820116820180604052508101906117259190614ef8565b939b929a50909850965090945092505050565b6117627fa49807205ce4d355092ef5a8a18f56e8913cf4a201fbe287825b095693c2177533611f75565b61177e5760405162461bcd60e51b815260040161096690615ae6565b600a55565b60006117af7fa49807205ce4d355092ef5a8a18f56e8913cf4a201fbe287825b095693c2177533611f75565b6117cb5760405162461bcd60e51b815260040161096690615ae6565b600b5460ff166001146117f05760405162461bcd60e51b8152600401610966906157e4565b600b805460ff191660021790556001600160a01b03821661187d574790506000336001600160a01b031682604051611827906154ae565b60006040518083038185875af1925050503d8060008114611864576040519150601f19603f3d011682016040523d82523d6000602084013e611869565b606091505b505090508061187757600080fd5b50611928565b6040517f70a082310000000000000000000000000000000000000000000000000000000081526001600160a01b038316906370a08231906118c29030906004016154b1565b60206040518083038186803b1580156118da57600080fd5b505afa1580156118ee573d6000803e3d6000fd5b505050506040513d601f19601f820116820180604052508101906119129190615139565b90506119286001600160a01b0383163383613a46565b600b805460ff19166001179055919050565b60006119667f843c3a00fa95510a35f425371231fd3fe4642e719cb4595160763d6d02594b5033611f75565b6119825760405162461bcd60e51b815260040161096690615a0a565b6000898152600260205260409020600a8101546001600160a01b03166119ae818d308b8b8b8b8b6140e8565b8160070160009054906101000a90046001600160a01b03166001600160a01b03166363f082478e308d8d6040518563ffffffff1660e01b81526004016119f794939291906154c5565b602060405180830381600087803b158015611a1157600080fd5b505af1158015611a25573d6000803e3d6000fd5b505050506040513d601f19601f82011682018060405250810190611a499190615139565b925087831115611a6b5760405162461bcd60e51b81526004016109669061592e565b87831015611a8157611a818c610b298a866139e9565b50509a9950505050505050505050565b60036020526000908152604090205460ff1681565b6000611ad27f843c3a00fa95510a35f425371231fd3fe4642e719cb4595160763d6d02594b5033611f75565b611aee5760405162461bcd60e51b815260040161096690615a0a565b61133f8383613b33565b6e22d473030f116ddee9f6b43ac78ba381565b611b357fa49807205ce4d355092ef5a8a18f56e8913cf4a201fbe287825b095693c2177533611f75565b611b515760405162461bcd60e51b815260040161096690615ae6565b610db77fa49807205ce4d355092ef5a8a18f56e8913cf4a201fbe287825b095693c2177582610dd2565b611ba57fa49807205ce4d355092ef5a8a18f56e8913cf4a201fbe287825b095693c2177533611f75565b611bc15760405162461bcd60e51b815260040161096690615ae6565b600780547fffffffffffffffffffffffff0000000000000000000000000000000000000000166001600160a01b0392909216919091179055600b805460ff19166001179055565b611c327fa49807205ce4d355092ef5a8a18f56e8913cf4a201fbe287825b095693c2177533611f75565b611c4e5760405162461bcd60e51b815260040161096690615ae6565b610db77f843c3a00fa95510a35f425371231fd3fe4642e719cb4595160763d6d02594b5082610dd2565b7fa49807205ce4d355092ef5a8a18f56e8913cf4a201fbe287825b095693c2177581565b7f843c3a00fa95510a35f425371231fd3fe4642e719cb4595160763d6d02594b5081565b611cea7fa49807205ce4d355092ef5a8a18f56e8913cf4a201fbe287825b095693c2177533611f75565b611d065760405162461bcd60e51b815260040161096690615ae6565b6040517f9dc29fac0000000000000000000000000000000000000000000000000000000081526001600160a01b03841690639dc29fac90611d4d908590859060040161559f565b600060405180830381600087803b158015611d6757600080fd5b505af1158015611d7b573d6000803e3d6000fd5b50505050505050565b611dae7fa49807205ce4d355092ef5a8a18f56e8913cf4a201fbe287825b095693c2177533611f75565b611dca5760405162461bcd60e51b815260040161096690615ae6565b610db77f55049dd3b89514f54f939cb6b3d0bd764d192f30d61ca6964b2cacf4a9134af182612cbb565b611e1e7fa49807205ce4d355092ef5a8a18f56e8913cf4a201fbe287825b095693c2177533611f75565b611e3a5760405162461bcd60e51b815260040161096690615ae6565b600855565b611e697fa49807205ce4d355092ef5a8a18f56e8913cf4a201fbe287825b095693c2177533611f75565b611e855760405162461bcd60e51b815260040161096690615ae6565b6001600160a01b03811660009081526006602052604090205460ff1615611eab57600080fd5b306001600160a01b0316816001600160a01b0316638da5cb5b6040518163ffffffff1660e01b815260040160206040518083038186803b158015611eee57600080fd5b505afa158015611f02573d6000803e3d6000fd5b505050506040513d601f19601f82011682018060405250810190611f269190614ab4565b6001600160a01b031614611f3957600080fd5b6001600160a01b03166000908152600660205260409020805460ff19166001179055565b600082815260208190526040812061133f90836141b9565b600082815260208190526040812061133f90836141c5565b600b5460009060ff16600114611fb55760405162461bcd60e51b8152600401610966906157e4565b600b805460ff1916600290811790915560008a815260209190915260409020600a8101546001600160a01b0316611ff28133308b8b8b8b8b6140e8565b60078201546040517f63f082470000000000000000000000000000000000000000000000000000000081526001600160a01b03909116906363f082479061204390339030908f908f906004016154c5565b602060405180830381600087803b15801561205d57600080fd5b505af1158015612071573d6000803e3d6000fd5b505050506040513d601f19601f820116820180604052508101906120959190615139565b9250878311156120b75760405162461bcd60e51b81526004016109669061592e565b878310156120d5576120d56001600160a01b03821633858b03613a46565b5050600b805460ff1916600117905598975050505050505050565b600061211c7f55049dd3b89514f54f939cb6b3d0bd764d192f30d61ca6964b2cacf4a9134af133611f75565b6121385760405162461bcd60e51b815260040161096690615aaf565b6000828152600260205260409020600601546001600160a01b031633146121715760405162461bcd60e51b8152600401610966906157ad565b600082815260026020526040908190206007015490517fd4b2529f0000000000000000000000000000000000000000000000000000000081526001600160a01b0390911690819063d4b2529f906121cc9030906004016154b1565b602060405180830381600087803b1580156121e657600080fd5b505af11580156121fa573d6000803e3d6000fd5b505050506040513d601f19601f8201168201806040525081019061221e9190615139565b600a54909250156122e2576000816001600160a01b0316634eabd8bc6040518163ffffffff1660e01b815260040160a06040518083038186803b15801561226457600080fd5b505afa158015612278573d6000803e3d6000fd5b505050506040513d601f19601f8201168201806040525081019061229c9190614ef8565b945050505050808311156122e05760006122b684836139e9565b905060006122cf600a54836141da90919063ffffffff16565b90506122db85826139e9565b945050505b505b6000838152600260205260409020600a0154612308906001600160a01b03163384613a46565b50919050565b600081565b6000818152600260205260408082206007015481517f23341a05000000000000000000000000000000000000000000000000000000008152915160609284928392839283926001600160a01b03169182916323341a059160048083019287929190829003018186803b15801561238857600080fd5b505afa15801561239c573d6000803e3d6000fd5b505050506040513d6000823e601f3d908101601f191682016040526123c49190810190614e15565b949d939c50919a509850965090945092505050565b600260208181526000928352604092839020805484516001821615610100026000190190911693909304601f810183900483028401830190945283835292839183018282801561246a5780601f1061243f5761010080835404028352916020019161246a565b820191906000526020600020905b81548152906001019060200180831161244d57829003601f168201915b505050505090806001018054600181600116156101000203166002900480601f0160208091040260200160405190810160405280929190818152602001828054600181600116156101000203166002900480156125085780601f106124dd57610100808354040283529160200191612508565b820191906000526020600020905b8154815290600101906020018083116124eb57829003601f168201915b50505060028085018054604080516020601f600019610100600187161502019094169590950492830185900485028101850190915281815295969594509092509083018282801561259a5780601f1061256f5761010080835404028352916020019161259a565b820191906000526020600020905b81548152906001019060200180831161257d57829003601f168201915b5050505060038301805460408051602060026001851615610100026000190190941693909304601f810184900484028201840190925281815294959493509083018282801561262a5780601f106125ff5761010080835404028352916020019161262a565b820191906000526020600020905b81548152906001019060200180831161260d57829003601f168201915b5050505060048301805460408051602060026001851615610100026000190190941693909304601f81018490048402820184019092528181529495949350908301828280156126ba5780601f1061268f576101008083540402835291602001916126ba565b820191906000526020600020905b81548152906001019060200180831161269d57829003601f168201915b5050505060058301546006840154600785015460088601546009870154600a9097015495966001600160a01b03948516969385169550918416939092168b565b60015481565b61272a7fa49807205ce4d355092ef5a8a18f56e8913cf4a201fbe287825b095693c2177533611f75565b6127465760405162461bcd60e51b815260040161096690615ae6565b600082815260026020526040908190206007015490517ff2fde38b0000000000000000000000000000000000000000000000000000000081526001600160a01b039091169063f2fde38b9061279f9084906004016154b1565b600060405180830381600087803b1580156127b957600080fd5b505af11580156127cd573d6000803e3d6000fd5b505050505050565b600081815260026020526040808220600a015481517f06fdde030000000000000000000000000000000000000000000000000000000081529151606092839285926001600160a01b0390911691829182916306fdde039160048083019288929190829003018186803b15801561284a57600080fd5b505afa15801561285e573d6000803e3d6000fd5b505050506040513d6000823e601f3d908101601f191682016040526128869190810190614f58565b826001600160a01b03166395d89b416040518163ffffffff1660e01b815260040160006040518083038186803b1580156128bf57600080fd5b505afa1580156128d3573d6000803e3d6000fd5b505050506040513d6000823e601f3d908101601f191682016040526128fb9190810190614f58565b836001600160a01b031663313ce5676040518163ffffffff1660e01b815260040160206040518083038186803b15801561293457600080fd5b505afa158015612948573d6000803e3d6000fd5b505050506040513d601f19601f8201168201806040525081019061296c9190615407565b9450945094509450509193509193565b6000838152600260205260408082206007015490517f535f02ee0000000000000000000000000000000000000000000000000000000081526001600160a01b039091169063535f02ee906129d69086908690600401615ca7565b60206040518083038186803b1580156129ee57600080fd5b505afa158015612a02573d6000803e3d6000fd5b505050506040513d601f19601f82011682018060405250810190612a269190614df9565b90505b9392505050565b600081815260208190526040812061134290614241565b612a717fa49807205ce4d355092ef5a8a18f56e8913cf4a201fbe287825b095693c2177533611f75565b612a8d5760405162461bcd60e51b815260040161096690615ae6565b6001600160a01b03811660009081526006602052604090205460ff16612ab257600080fd5b6001600160a01b03166000908152600660205260409020805460ff19169055565b600b5460009060ff16600114612afb5760405162461bcd60e51b8152600401610966906157e4565b600b805460ff19166002908117909155600086815260209190915260409020600a8101546001600160a01b0316612b348133308761424c565b60078201546040517f63f082470000000000000000000000000000000000000000000000000000000081526001600160a01b03909116906363f0824790612b8590339030908b908b906004016154c5565b602060405180830381600087803b158015612b9f57600080fd5b505af1158015612bb3573d6000803e3d6000fd5b505050506040513d601f19601f82011682018060405250810190612bd79190615139565b925083831115612bf95760405162461bcd60e51b81526004016109669061592e565b83831015612c1757612c176001600160a01b03821633858703613a46565b5050600b805460ff19166001179055949350505050565b612c587fa49807205ce4d355092ef5a8a18f56e8913cf4a201fbe287825b095693c2177533611f75565b612c745760405162461bcd60e51b815260040161096690615ae6565b6040517f40c10f190000000000000000000000000000000000000000000000000000000081526001600160a01b038416906340c10f1990611d4d908590859060040161559f565b600082815260208190526040902060020154612cd9906106ca613ac6565b61139f5760405162461bcd60e51b8152600401808060200182810382526030815260200180615e5d6030913960400191505060405180910390fd5b6000612d407f55049dd3b89514f54f939cb6b3d0bd764d192f30d61ca6964b2cacf4a9134af133611f75565b612d5c5760405162461bcd60e51b815260040161096690615aaf565b600089815260026020526040902060068101546001600160a01b03163314612d965760405162461bcd60e51b8152600401610966906157ad565b600a8101546001600160a01b0316612db4818d308b8b8b8b8b6140e8565b60078201546040517f63f082470000000000000000000000000000000000000000000000000000000081526001600160a01b03909116906363f0824790612e05908f9030908f908f906004016154c5565b602060405180830381600087803b158015612e1f57600080fd5b505af1158015612e33573d6000803e3d6000fd5b505050506040513d601f19601f82011682018060405250810190612e579190615139565b925087831115612e795760405162461bcd60e51b81526004016109669061592e565b87831015612e8f57612e8f8c610b298a866139e9565b50509998505050505050505050565b600b5460009060ff16600114612ec65760405162461bcd60e51b8152600401610966906157e4565b600b805460ff1916600290811790915560008a81526020919091526040908190206007810154600a9091015491517fd505accf0000000000000000000000000000000000000000000000000000000081526001600160a01b039182169290911690819063d505accf90612f4990339086908d908d908d908d908d90600401615515565b600060405180830381600087803b158015612f6357600080fd5b505af1158015612f77573d6000803e3d6000fd5b50506040517f63f082470000000000000000000000000000000000000000000000000000000081526001600160a01b03851692506363f082479150612fc690339081908f908f906004016154c5565b602060405180830381600087803b158015612fe057600080fd5b505af1158015612ff4573d6000803e3d6000fd5b505050506040513d601f19601f820116820180604052508101906130189190615139565b9250878311156120d55760405162461bcd60e51b81526004016109669061592e565b6130647fa49807205ce4d355092ef5a8a18f56e8913cf4a201fbe287825b095693c2177533611f75565b6130805760405162461bcd60e51b815260040161096690615ae6565b6040517ff2fde38b0000000000000000000000000000000000000000000000000000000081526001600160a01b0383169063f2fde38b9061279f9084906004016154b1565b6130ef7fa49807205ce4d355092ef5a8a18f56e8913cf4a201fbe287825b095693c2177533611f75565b61310b5760405162461bcd60e51b815260040161096690615ae6565b600955565b61313a7fa49807205ce4d355092ef5a8a18f56e8913cf4a201fbe287825b095693c2177533611f75565b6131565760405162461bcd60e51b815260040161096690615ae6565b6001600160a01b03811660009081526003602052604090205460ff161561317c57600080fd5b6001600160a01b03166000908152600360205260409020805460ff19166001179055565b6131ca7fa49807205ce4d355092ef5a8a18f56e8913cf4a201fbe287825b095693c2177533611f75565b6131e65760405162461bcd60e51b815260040161096690615ae6565b6001600160a01b03811660009081526003602052604090205460ff1661320b57600080fd5b6001600160a01b03166000908152600360205260409020805460ff19169055565b6132567fa49807205ce4d355092ef5a8a18f56e8913cf4a201fbe287825b095693c2177533611f75565b6132725760405162461bcd60e51b815260040161096690615ae6565b60008b815260026020526040902060078101546001600160a01b03166132aa5760405162461bcd60e51b8152600401610966906159d3565b8a51156132c5578a516132c390829060208e0190614859565b505b8951156132e35789516132e190600183019060208d0190614859565b505b8851156133015788516132ff90600283019060208c0190614859565b505b87511561331f57875161331d90600383019060208b0190614859565b505b86511561333d57865161333b90600483019060208a0190614859565b505b6001600160a01b03861615613382576005810180547fffffffffffffffffffffffff0000000000000000000000000000000000000000166001600160a01b0388161790555b6001600160a01b0383161561340f5760078101546040517f1cb44dfc0000000000000000000000000000000000000000000000000000000081526001600160a01b0390911690631cb44dfc906133dc9086906004016154b1565b600060405180830381600087803b1580156133f657600080fd5b505af115801561340a573d6000803e3d6000fd5b505050505b600082126134955760078101546040517f4be1865d0000000000000000000000000000000000000000000000000000000081526001600160a01b0390911690634be1865d9061346290859060040161560e565b600060405180830381600087803b15801561347c57600080fd5b505af1158015613490573d6000803e3d6000fd5b505050505b600085156134a857506008810185905560015b84156134b957506009810184905560015b8015613547576007820154600883015460098401546040517fe6b2c87c0000000000000000000000000000000000000000000000000000000081526001600160a01b039093169263e6b2c87c92613514929091600401615cb8565b600060405180830381600087803b15801561352e57600080fd5b505af1158015613542573d6000803e3d6000fd5b505050505b50505050505050505050505050565b60006135827f843c3a00fa95510a35f425371231fd3fe4642e719cb4595160763d6d02594b5033611f75565b61359e5760405162461bcd60e51b815260040161096690615a0a565b6001600160a01b03821660009081526005602052604090205460ff166135d65760405162461bcd60e51b81526004016109669061599c565b600083815260026020526040908190206007015490517fd4b2529f0000000000000000000000000000000000000000000000000000000081526001600160a01b039091169063d4b2529f9061362f9085906004016154b1565b602060405180830381600087803b15801561364957600080fd5b505af115801561365d573d6000803e3d6000fd5b505050506040513d601f19601f8201168201806040525081019061133f9190615139565b60066020526000908152604090205460ff1681565b6136c07fa49807205ce4d355092ef5a8a18f56e8913cf4a201fbe287825b095693c2177533611f75565b6136dc5760405162461bcd60e51b815260040161096690615ae6565b610db77f843c3a00fa95510a35f425371231fd3fe4642e719cb4595160763d6d02594b5082612cbb565b6000818152600260205260408082206007015490517fa9bbf7f10000000000000000000000000000000000000000000000000000000081526001600160a01b039091169063a9bbf7f19061375e9033906004016154b1565b602060405180830381600087803b15801561377857600080fd5b505af115801561378c573d6000803e3d6000fd5b505050506040513d601f19601f820116820180604052508101906113429190615139565b6137da7fa49807205ce4d355092ef5a8a18f56e8913cf4a201fbe287825b095693c2177533611f75565b6137f65760405162461bcd60e51b815260040161096690615ae6565b6001600160a01b03811660009081526005602052604090205460ff161561381c57600080fd5b6001600160a01b03166000908152600560205260409020805460ff19166001179055565b61386a7fa49807205ce4d355092ef5a8a18f56e8913cf4a201fbe287825b095693c2177533611f75565b6138865760405162461bcd60e51b815260040161096690615ae6565b6001600160a01b03811660009081526005602052604090205460ff166138ab57600080fd5b6001600160a01b03166000908152600560205260409020805460ff19169055565b6000838152600260205260408082206007015490517f3dcb8b810000000000000000000000000000000000000000000000000000000081526001600160a01b0390911690633dcb8b81906129d69086908690600401615ca7565b600754600854600954600a546001600160a01b039093169290919293565b61396e7fa49807205ce4d355092ef5a8a18f56e8913cf4a201fbe287825b095693c2177533611f75565b61398a5760405162461bcd60e51b815260040161096690615ae6565b6001600160a01b03811660009081526004602052604090205460ff16156139b057600080fd5b6001600160a01b03166000908152600460205260409020805460ff19166001179055565b600061133f836001600160a01b0384166142da565b600082821115613a40576040805162461bcd60e51b815260206004820152601e60248201527f536166654d6174683a207375627472616374696f6e206f766572666c6f770000604482015290519081900360640190fd5b50900390565b604080516001600160a01b038416602482015260448082018490528251808303909101815260649091019091526020810180517bffffffffffffffffffffffffffffffffffffffffffffffffffffffff167fa9059cbb00000000000000000000000000000000000000000000000000000000179052610f2a908490614324565b3390565b6000828152602081905260409020613ae290826139d4565b15610e3557613aef613ac6565b6001600160a01b0316816001600160a01b0316837f2f8788117e7eff1d82e926ec794901d17c78024a50270940304540a733656f0d60405160405180910390a45050565b6007546000908190613b4d906001600160a01b03166143d5565b6101408501516040517fc4d66de800000000000000000000000000000000000000000000000000000000815291925082916001600160a01b0383169163c4d66de891613b9c91906004016154b1565b600060405180830381600087803b158015613bb657600080fd5b505af1158015613bca573d6000803e3d6000fd5b50505060c08501516001600160a01b031630149050613c1057613c108460c00151308660a001518861014001516001600160a01b031661424c909392919063ffffffff16565b8461014001516001600160a01b031663095ea7b3836000196040518363ffffffff1660e01b8152600401613c4592919061559f565b602060405180830381600087803b158015613c5f57600080fd5b505af1158015613c73573d6000803e3d6000fd5b505050506040513d601f19601f82011682018060405250810190613c979190614d7c565b5060015460a085015160408601511415613d3d5784516020860151604080880151606089015191517f5467a7510000000000000000000000000000000000000000000000000000000081526001600160a01b03871694635467a75194613d069488949293919291600401615c4a565b600060405180830381600087803b158015613d2057600080fd5b505af1158015613d34573d6000803e3d6000fd5b50505050613dcf565b84516020860151604080880151606089015160a08a015192517f26949b7e0000000000000000000000000000000000000000000000000000000081526001600160a01b038816956326949b7e95613d9c95899592949193600401615c76565b600060405180830381600087803b158015613db657600080fd5b505af1158015613dca573d6000803e3d6000fd5b505050505b6101008601516101208701516040517fe6b2c87c0000000000000000000000000000000000000000000000000000000081526001600160a01b0385169263e6b2c87c92613e1e92600401615cb8565b600060405180830381600087803b158015613e3857600080fd5b505af1158015613e4c573d6000803e3d6000fd5b505050506000856080015112613ed85760808501516040517f4be1865d0000000000000000000000000000000000000000000000000000000081526001600160a01b03841691634be1865d91613ea5919060040161560e565b600060405180830381600087803b158015613ebf57600080fd5b505af1158015613ed3573d6000803e3d6000fd5b505050505b6001600160a01b03831660e08701526000818152600260209081526040909120875180518993613f0c928492910190614859565b506020828101518051613f259260018501920190614859565b5060408201518051613f41916002840191602090910190614859565b5060608201518051613f5d916003840191602090910190614859565b5060808201518051613f79916004840191602090910190614859565b5060a08201516005820180547fffffffffffffffffffffffff00000000000000000000000000000000000000009081166001600160a01b039384161790915560c0840151600684018054831691841691909117905560e084015160078401805483169184169190911790556101008401516008840155610120840151600984015561014090930151600a9092018054909316911617905561401b816001614490565b6001819055508560c001516001600160a01b03168660a001516001600160a01b03167f75ff60a1e5fecc81078a9c8184f3c5c0bda01c93711a115e1269c65642606c54838660405161406e929190615c33565b60405180910390a395945050505050565b600082815260208190526040902061409790826144ea565b15610e35576140a4613ac6565b6001600160a01b0316816001600160a01b0316837ff6391f5c32d9c69d2a47ea670b442974b53935d1edc7fd64eb21e047a839171b60405160405180910390a45050565b6040805160a0810182526001600160a01b038a811660608301908152608083018990528252602080830188905282840187905283518085018552918a168252810188905291517f30f28b7a0000000000000000000000000000000000000000000000000000000081526e22d473030f116ddee9f6b43ac78ba3926330f28b7a9261417d929091908c9088908890600401615bc2565b600060405180830381600087803b15801561419757600080fd5b505af11580156141ab573d6000803e3d6000fd5b505050505050505050505050565b600061133f83836144ff565b600061133f836001600160a01b038416614563565b6000808211614230576040805162461bcd60e51b815260206004820152601a60248201527f536166654d6174683a206469766973696f6e206279207a65726f000000000000604482015290519081900360640190fd5b81838161423957fe5b049392505050565b60006113428261457b565b604080516001600160a01b0380861660248301528416604482015260648082018490528251808303909101815260849091019091526020810180517bffffffffffffffffffffffffffffffffffffffffffffffffffffffff167f23b872dd000000000000000000000000000000000000000000000000000000001790526142d4908590614324565b50505050565b60006142e68383614563565b61431c57508154600181810184556000848152602080822090930184905584548482528286019093526040902091909155611342565b506000611342565b6000614379826040518060400160405280602081526020017f5361666545524332303a206c6f772d6c6576656c2063616c6c206661696c6564815250856001600160a01b031661457f9092919063ffffffff16565b805190915015610f2a5780806020019051602081101561439857600080fd5b5051610f2a5760405162461bcd60e51b815260040180806020018281038252602a815260200180615e8d602a913960400191505060405180910390fd5b60006040517f3d602d80600a3d3981f3363d3d373d3d3d363d7300000000000000000000000081528260601b60148201527f5af43d82803e903d91602b57fd5bf3000000000000000000000000000000000060288201526037816000f09150506001600160a01b038116610dcd576040805162461bcd60e51b815260206004820152601660248201527f455243313136373a20637265617465206661696c656400000000000000000000604482015290519081900360640190fd5b60008282018381101561133f576040805162461bcd60e51b815260206004820152601b60248201527f536166654d6174683a206164646974696f6e206f766572666c6f770000000000604482015290519081900360640190fd5b600061133f836001600160a01b03841661458e565b815460009082106145415760405162461bcd60e51b8152600401808060200182810382526022815260200180615de66022913960400191505060405180910390fd5b82600001828154811061455057fe5b9060005260206000200154905092915050565b60009081526001919091016020526040902054151590565b5490565b6060612a268484600085614654565b6000818152600183016020526040812054801561464a57835460001980830191908101906000908790839081106145c157fe5b90600052602060002001549050808760000184815481106145de57fe5b60009182526020808320909101929092558281526001898101909252604090209084019055865487908061460e57fe5b60019003818190600052602060002001600090559055866001016000878152602001908152602001600020600090556001945050505050611342565b6000915050611342565b6060824710156146955760405162461bcd60e51b8152600401808060200182810382526026815260200180615e376026913960400191505060405180910390fd5b61469e856147af565b6146ef576040805162461bcd60e51b815260206004820152601d60248201527f416464726573733a2063616c6c20746f206e6f6e2d636f6e7472616374000000604482015290519081900360640190fd5b600080866001600160a01b031685876040518082805190602001908083835b6020831061472d5780518252601f19909201916020918201910161470e565b6001836020036101000a03801982511681845116808217855250505050505090500191505060006040518083038185875af1925050503d806000811461478f576040519150601f19603f3d011682016040523d82523d6000602084013e614794565b606091505b50915091506147a48282866147b5565b979650505050505050565b3b151590565b606083156147c4575081612a29565b8251156147d45782518084602001fd5b8160405162461bcd60e51b81526004018080602001828103825283818151815260200191508051906020019080838360005b8381101561481e578181015183820152602001614806565b50505050905090810190601f16801561484b5780820380516001836020036101000a031916815260200191505b509250505060405180910390fd5b828054600181600116156101000203166002900490600052602060002090601f01602090048101928261488f57600085556148d5565b82601f106148a857805160ff19168380011785556148d5565b828001600101855582156148d5579182015b828111156148d55782518255916020019190600101906148ba565b506148e19291506148e5565b5090565b5b808211156148e157600081556001016148e6565b8035610dcd81615db2565b600082601f830112614915578081fd5b8151602061492a61492583615d46565b615d22565b8281528181019085830183850287018401881015614946578586fd5b855b8581101561496457815184529284019290840190600101614948565b5090979650505050505050565b60008083601f840112614982578182fd5b50813567ffffffffffffffff811115614999578182fd5b6020830191508360208285010111156149b157600080fd5b9250929050565b8051610dcd81615dc7565b600082601f8301126149d3578081fd5b81356149e161492582615d64565b8181528460208386010111156149f5578283fd5b816020850160208301379081016020019190915292915050565b600060e08284031215614a20578081fd5b60405160e0810181811067ffffffffffffffff82111715614a3d57fe5b604052905080614a4c836148fa565b81526020830135602082015260408301356040820152606083013560608201526080830135608082015260a083013560a0820152614a8c60c084016148fa565b60c08201525092915050565b600060208284031215614aa9578081fd5b813561133f81615db2565b600060208284031215614ac5578081fd5b815161133f81615db2565b60008060408385031215614ae2578081fd5b8235614aed81615db2565b91506020830135614afd81615db2565b809150509250929050565b60008060008060808587031215614b1d578182fd5b8435614b2881615db2565b93506020850135614b3881615db2565b92506040850135614b4881615db2565b9396929550929360600135925050565b600080600060608486031215614b6c578081fd5b8335614b7781615db2565b92506020840135614b8781615db2565b929592945050506040919091013590565b6000806000806000806000806000806101208b8d031215614bb7578788fd5b8a35614bc281615db2565b995060208b0135614bd281615db2565b985060408b0135975060608b0135965060808b0135614bf081615dc7565b955060a08b0135945060c08b0135935060e08b013592506101008b013567ffffffffffffffff811115614c21578283fd5b614c2d8d828e01614971565b915080935050809150509295989b9194979a5092959850565b60008060008060008060008060006101008a8c031215614c64578283fd5b8935614c6f81615db2565b985060208a0135975060408a0135965060608a0135614c8d81615dc7565b955060808a0135945060a08a0135935060c08a0135925060e08a013567ffffffffffffffff811115614cbd578283fd5b614cc98c828d01614971565b915080935050809150509295985092959850929598565b600060208284031215614cf1578081fd5b815167ffffffffffffffff811115614d07578182fd5b614d1384828501614905565b949350505050565b60008060408385031215614d2d578182fd5b825167ffffffffffffffff80821115614d44578384fd5b614d5086838701614905565b93506020850151915080821115614d65578283fd5b50614d7285828601614905565b9150509250929050565b600060208284031215614d8d578081fd5b8151801515811461133f578182fd5b600060208284031215614dad578081fd5b5035919050565b60008060408385031215614dc6578182fd5b823591506020830135614afd81615db2565b60008060408385031215614dea578182fd5b50508035926020909101359150565b600060208284031215614e0a578081fd5b815161133f81615dc7565b60008060008060008060c08789031215614e2d578384fd5b8651614e3881615dc7565b8096505060208088015167ffffffffffffffff811115614e56578586fd5b8801601f81018a13614e66578586fd5b8051614e7461492582615d46565b81815283810190838501858402850186018e1015614e9057898afd5b8994505b83851015614ebb578051614ea781615dc7565b835260019490940193918501918501614e94565b508099505050505050614ed0604088016149b8565b9350614ede606088016149b8565b92506080870151915060a087015190509295509295509295565b600080600080600060a08688031215614f0f578283fd5b8551614f1a81615dc7565b6020870151909550614f2b81615dc7565b604087015160608801519195509350614f4381615dc7565b80925050608086015190509295509295909350565b600060208284031215614f69578081fd5b815167ffffffffffffffff811115614f7f578182fd5b8201601f81018413614f8f578182fd5b8051614f9d61492582615d64565b818152856020838501011115614fb1578384fd5b614fc2826020830160208601615d86565b95945050505050565b600080610100808486031215614fdf578283fd5b833567ffffffffffffffff80821115614ff6578485fd5b818601915061016080838903121561500c578586fd5b61501581615d22565b9050823582811115615025578687fd5b615031898286016149c3565b825250602083013582811115615045578687fd5b615051898286016149c3565b602083015250604083013582811115615068578687fd5b615074898286016149c3565b60408301525060608301358281111561508b578687fd5b615097898286016149c3565b6060830152506080830135828111156150ae578687fd5b6150ba898286016149c3565b6080830152506150cc60a084016148fa565b60a08201526150dd60c084016148fa565b60c08201526150ee60e084016148fa565b60e082015283830135848201526101209350838301358482015261014093506151188484016148fa565b84820152809550505050506151308460208501614a0f565b90509250929050565b60006020828403121561514a578081fd5b5051919050565b60008060008060008060008060008060006101608c8e031215615172578485fd5b8b359a5067ffffffffffffffff8060208e0135111561518f578586fd5b61519f8e60208f01358f016149c3565b9a508060408e013511156151b1578586fd5b6151c18e60408f01358f016149c3565b99508060608e013511156151d3578586fd5b6151e38e60608f01358f016149c3565b98508060808e013511156151f5578586fd5b6152058e60808f01358f016149c3565b97508060a08e01351115615217578586fd5b506152288d60a08e01358e016149c3565b955061523660c08d016148fa565b945060e08c013593506101008c013592506152546101208d016148fa565b91506101408c013590509295989b509295989b9093969950565b600080600060608486031215615282578081fd5b8335925060208401359150604084013561529b81615dc7565b809150509250925092565b600080600080608085870312156152bb578182fd5b84359350602085013592506040850135614b4881615dc7565b60008060008060008060008060e0898b0312156152ef578182fd5b8835975060208901359650604089013561530881615dc7565b9550606089013594506080890135935060a0890135925060c089013567ffffffffffffffff811115615338578283fd5b6153448b828c01614971565b999c989b5096995094979396929594505050565b600080600080600080600080610100898b031215615374578182fd5b8835975060208901359650604089013561538d81615dc7565b9550606089013594506080890135935060a08901356153ab81615dd6565b979a969950949793969295929450505060c08201359160e0013590565b600080600080600060a086880312156153df578283fd5b5050835160208501516040860151606087015160809097015192989197509594509092509050565b600060208284031215615418578081fd5b815161133f81615dd6565b6001600160a01b03169052565b6000815180845260208085019450808401835b8381101561545f57815187529582019590820190600101615443565b509495945050505050565b60008151808452615482816020860160208601615d86565b601f01601f19169290920160200192915050565b80516001600160a01b03168252602090810151910152565b90565b6001600160a01b0391909116815260200190565b6001600160a01b0394851681529290931660208301526040820152600f9190910b606082015260800190565b6001600160a01b039384168152919092166020820152604081019190915260600190565b6001600160a01b0397881681529590961660208601526040850193909352606084019190915260ff16608083015260a082015260c081019190915260e00190565b60006001600160a01b038616825260806020830152615578608083018661546a565b828103604084015261558a818661546a565b91505060ff8316606083015295945050505050565b6001600160a01b03929092168252602082015260400190565b6001600160a01b0394909416845260208401929092526040830152606082015260800190565b6000604082526155f16040830185615430565b8281036020840152614fc28185615430565b901515815260200190565b90815260200190565b600f9190910b815260200190565b600060c08201600f89810b8452602060c081860152828a5180855260e087019150828c019450855b8181101561566b578551850b8352948301949183019160010161564d565b505098820b6040860152509590950b606083015250608081019290925260a0909101525092915050565b600f95860b815293850b6020850152604084019290925290920b6060820152608081019190915260a00190565b60006101608083526156d68184018f61546a565b905082810360208401526156ea818e61546a565b905082810360408401526156fe818d61546a565b90508281036060840152615712818c61546a565b90508281036080840152615726818b61546a565b9150506001600160a01b0380891660a084015280881660c084015280871660e0840152508461010083015283610120830152615766610140830184615423565b9c9b505050505050505050505050565b6020808252600e908201527f496e76616c69642066756e646572000000000000000000000000000000000000604082015260600190565b60208082526014908201527f4e6f7420616c6c6f776564206f70657261746f72000000000000000000000000604082015260600190565b60208082526006908201527f4c6f636b65640000000000000000000000000000000000000000000000000000604082015260600190565b60208082526013908201527f53656c6c2072657475726e20746f6f206c6f7700000000000000000000000000604082015260600190565b60208082526011908201527f496e76616c6964206f766572726f756e64000000000000000000000000000000604082015260600190565b6020808252601b908201527f496e76616c6964207265736f6c7574696f6e2063726974657269610000000000604082015260600190565b60208082526014908201527f4e6f74206f776e656420636f6c6c61746572616c000000000000000000000000604082015260600190565b60208082526010908201527f496e76616c6964207175657374696f6e00000000000000000000000000000000604082015260600190565b60208082526011908201527f42757920636f737420746f6f2068696768000000000000000000000000000000604082015260600190565b60208082526010908201527f496e76616c6964206f7574636f6d657300000000000000000000000000000000604082015260600190565b60208082526014908201527f4e6f7420616c6c6f776564207265636569766572000000000000000000000000604082015260600190565b6020808252600e908201527f496e76616c6964206d61726b6574000000000000000000000000000000000000604082015260600190565b6020808252600b908201527f4f6e6c792043616c6c6572000000000000000000000000000000000000000000604082015260600190565b60208082526016908201527f436f6c6c61746572616c206e6f7420616c6c6f77656400000000000000000000604082015260600190565b60208082526017908201527f496e76616c69642073656c6c2066656520666163746f72000000000000000000604082015260600190565b60208082526014908201527f4f6e6c79204d61726b6574204f70657261746f72000000000000000000000000604082015260600190565b6020808252600a908201527f4f6e6c792041646d696e00000000000000000000000000000000000000000000604082015260600190565b6020808252600d908201527f496e76616c696420646174657300000000000000000000000000000000000000604082015260600190565b60208082526012908201527f4f7261636c65206e6f7420616c6c6f7765640000000000000000000000000000604082015260600190565b60208082526011908201527f496e76616c6964206c6971756964697479000000000000000000000000000000604082015260600190565b6000610100615bd2838951615496565b6020880151604084015260408801516060840152615bf36080840188615496565b6001600160a01b03861660c08401528060e0840152838184015250610120838582850137828401810191909152601f909201601f19160101949350505050565b9182526001600160a01b0316602082015260400190565b9485526001600160a01b0393909316602085015260408401919091526060830152608082015260a00190565b9586526001600160a01b0394909416602086015260408501929092526060840152608083015260a082015260c00190565b918252600f0b602082015260400190565b918252602082015260400190565b92835260208301919091526001600160a01b0316604082015260600190565b600087825286602083015285604083015284606083015283608083015260c060a0830152615d1660c0830184615430565b98975050505050505050565b60405181810167ffffffffffffffff81118282101715615d3e57fe5b604052919050565b600067ffffffffffffffff821115615d5a57fe5b5060209081020190565b600067ffffffffffffffff821115615d7857fe5b50601f01601f191660200190565b60005b83811015615da1578181015183820152602001615d89565b838111156142d45750506000910152565b6001600160a01b0381168114610db757600080fd5b80600f0b8114610db757600080fd5b60ff81168114610db757600080fdfe456e756d657261626c655365743a20696e646578206f7574206f6620626f756e6473416363657373436f6e74726f6c3a2073656e646572206d75737420626520616e2061646d696e20746f206772616e74416464726573733a20696e73756666696369656e742062616c616e636520666f722063616c6c416363657373436f6e74726f6c3a2073656e646572206d75737420626520616e2061646d696e20746f207265766f6b655361666545524332303a204552433230206f7065726174696f6e20646964206e6f742073756363656564416363657373436f6e74726f6c3a2063616e206f6e6c792072656e6f756e636520726f6c657320666f722073656c66a2646970667358221220dd5883c96087aa839248cdd823e83462ba5dbcd7f0689c72e58d3d6a3b2fb3c164736f6c63430007060033a49807205ce4d355092ef5a8a18f56e8913cf4a201fbe287825b095693c21775",
  "devdoc": {
    "author": "Marto (https://github.com/0xMarto)",
    "details": "Feel free to leave any code improvements (DMs are open @0xMarto)",
    "kind": "dev",
    "methods": {
      "buyMarketSharesFor(address,uint256,uint256,int128,uint256,uint256,uint256,bytes)": {
        "details": "Allows market operators to execute trades for users via gasless Permit2 signatures.",
        "params": {
          "account": "Address that will receive the purchased shares",
          "deadline": "Unix timestamp after which signature expires",
          "marketId": "Unique market identifier",
          "maxAmountIn": "Max amount of collateral tokens willing to spend (slippage protection)",
          "nonce": "Permit2 nonce to prevent signature replay",
          "outcome": "Outcome index for which shares are being bought (e.g., 1=YES, 2=NO)",
          "sharesAmount": "Number of shares to buy (64.64 fixed point)",
          "sig": "Permit2 signature from the account authorizing the transfer"
        },
        "returns": {
          "amountIn": "Actual collateral spent on the purchase"
        }
      },
      "createMarket((string,string,string,string,string,address,address,address,uint256,uint256,address),(address,uint256,uint256,uint256,int256,uint256,address))": {
        "details": "Deploys a minimal proxy clone of the base market implementation. Only callable by market operators.",
        "params": {
          "config": "Market parameters including oracle, liquidity, overround, and fee settings",
          "data": "Market metadata including question, resolution criteria, outcomes, dates, and collateral"
        },
        "returns": {
          "newMarketId": "Unique identifier for the newly created market"
        }
      },
      "getMarketsConfigs()": {
        "details": "Returns parameters used to validate and configure new markets created by operators.",
        "returns": {
          "feeFactor": "Protocol fee factor used to calculate fees on market profits (fee = 1 / feeFactor)",
          "implementation": "Address of the base market implementation contract used for cloning",
          "minOverround": "Minimum overround (in basis points) required for market creation",
          "minSellFeeFactor": "Minimum sell fee factor allowed (negative value disables validation)"
        }
      },
      "getRoleAdmin(bytes32)": {
        "details": "Returns the admin role that controls `role`. See {grantRole} and {revokeRole}. To change a role's admin, use {_setRoleAdmin}."
      },
      "getRoleMember(bytes32,uint256)": {
        "details": "Returns one of the accounts that have `role`. `index` must be a value between 0 and {getRoleMemberCount}, non-inclusive. Role bearers are not sorted in any particular way, and their ordering may change at any point. WARNING: When using {getRoleMember} and {getRoleMemberCount}, make sure you perform all queries on the same block. See the following https://forum.openzeppelin.com/t/iterating-over-elements-on-enumerableset-in-openzeppelin-contracts/2296[forum post] for more information."
      },
      "getRoleMemberCount(bytes32)": {
        "details": "Returns the number of accounts that have `role`. Can be used together with {getRoleMember} to enumerate all bearers of a role."
      },
      "grantRole(bytes32,address)": {
        "details": "Grants `role` to `account`. If `account` had not been already granted `role`, emits a {RoleGranted} event. Requirements: - the caller must have ``role``'s admin role."
      },
      "hasRole(bytes32,address)": {
        "details": "Returns `true` if `account` has been granted `role`."
      },
      "marketAccountInfo(uint256,address)": {
        "details": "Returns trading statistics and outcome share balances for an account in the specified market.",
        "params": {
          "account": "Address of the account to query",
          "marketId": "Unique market identifier"
        },
        "returns": {
          "balances": "Share balances for each outcome, indexed by outcome (balances[0] always unused)",
          "buys": "Total number of buy transactions executed by this account",
          "deposited": "Total collateral deposited through buy transactions (cumulative)",
          "redeemed": "Total collateral redeemed after market closure (0 if not redeemed yet)",
          "sells": "Total number of sell transactions executed by this account",
          "withdrawn": "Total collateral withdrawn through sell transactions (cumulative)"
        }
      },
      "marketBuy(uint256,uint256,int128,uint256)": {
        "params": {
          "marketId": "Unique market identifier to trade",
          "maxAmountIn": "Max amount of collateral tokens willing to spend (slippage protection)",
          "outcome": "The outcome index of which shares are being bought (e.g.: 1 for YES, 2 for NO)",
          "sharesAmount": "Number of outcome shares to buy (as a signed 64.64-bit fixed point number)"
        },
        "returns": {
          "amountIn": "Actual amount of collateral tokens spent on the trade"
        }
      },
      "marketBuyPrice(uint256,uint256,int128)": {
        "params": {
          "marketId": "Unique market identifier to trade",
          "outcome": "The outcome for which tokens are being bought",
          "sharesAmount": "Number of outcome shares to buy (as signed 64.64-bit fixed point number)"
        },
        "returns": {
          "tokenCost": "The token cost amount (as a signed 64.64-bit fixed point number)"
        }
      },
      "marketBuyWithPermit(uint256,uint256,int128,uint256,uint256,uint8,bytes32,bytes32)": {
        "details": "The permit signature must approve the Market contract directly (not Master) as the spender.",
        "params": {
          "deadline": "Unix timestamp after which the permit signature expires",
          "marketId": "Unique market identifier to trade",
          "maxAmountIn": "Max amount of collateral tokens willing to spend (slippage protection)",
          "outcome": "The outcome index of which shares are being bought (e.g.: 1 for YES, 2 for NO)",
          "r": "First 32 bytes of the ECDSA signature",
          "s": "Second 32 bytes of the ECDSA signature",
          "sharesAmount": "Number of outcome shares to buy (as a signed 64.64-bit fixed point number)",
          "v": "Recovery byte of the ECDSA signature"
        },
        "returns": {
          "amountIn": "Actual amount of collateral tokens spent on the trade"
        }
      },
      "marketBuyWithPermit2(uint256,uint256,int128,uint256,uint256,uint256,bytes)": {
        "details": "This function uses Uniswap's Permit2 contract for signature-based token transfers.",
        "params": {
          "deadline": "Unix timestamp after which the permit signature expires",
          "marketId": "Unique market identifier to trade",
          "maxAmountIn": "Max amount of collateral tokens willing to spend (slippage protection)",
          "nonce": "Unique value to prevent signature replay (from Permit2 contract)",
          "outcome": "The outcome index of which shares are being bought (e.g.: 1 for YES, 2 for NO)",
          "sharesAmount": "Number of outcome shares to buy (as a signed 64.64-bit fixed point number)",
          "sig": "Permit2 signature authorizing the transfer"
        },
        "returns": {
          "amountIn": "Actual amount of collateral tokens spent on the trade"
        }
      },
      "marketCollateralInfo(uint256)": {
        "details": "Returns ERC20 token details (address, name, symbol, decimals) used on the market",
        "params": {
          "marketId": "Unique market identifier"
        },
        "returns": {
          "decimals": "Token decimals (e.g., 6 for USDC, 18 for DAI)",
          "name": "Token name (e.g., \"USD Coin\")",
          "symbol": "Token symbol (e.g., \"USDC\")",
          "token": "Collateral token contract address"
        }
      },
      "marketPrices(uint256)": {
        "details": "Helper function to fast calculate market prediction and spreads",
        "params": {
          "marketId": "unique market identifier to trade"
        },
        "returns": {
          "buyPrices": "buy price of 1 share for all outcomes (indexed by outcome)",
          "sellPrices": "sell price of 1 share for all outcomes (indexed by outcome)"
        }
      },
      "marketRedeemShares(uint256)": {
        "params": {
          "marketId": "Unique market identifier"
        },
        "returns": {
          "shares": "Number of shares redeemed"
        }
      },
      "marketResultInfo(uint256)": {
        "details": "Helper function to show closed market info",
        "params": {
          "marketId": "unique market identifier to trade"
        },
        "returns": {
          "closed": "Timestamp when the market result was reported",
          "reporter": "Address of the market result reporter (market oracle)",
          "result": "Reported market result outcome"
        }
      },
      "marketSell(uint256,uint256,int128,uint256)": {
        "params": {
          "marketId": "Unique market identifier to trade",
          "minAmountOut": "Min amount of collateral tokens to obtain (slippage protection)",
          "outcome": "The outcome of which shares are being sold (e.g.: 1 for YES, 2 for NO)",
          "sharesAmount": "Number of outcome shares to sell (as a signed 64.64-bit fixed point number)"
        },
        "returns": {
          "amountOut": "Token amount obtain from selling the specified amount of shares"
        }
      },
      "marketSellPrice(uint256,uint256,int128)": {
        "params": {
          "marketId": "Unique market identifier to trade",
          "outcome": "The outcome for which shares are being sold",
          "sharesAmount": "The number of outcome shares to sell (as signed 64.64-bit fixed point number)"
        },
        "returns": {
          "tokenReturn": "The token return amount (as a signed 64.64-bit fixed point number)"
        }
      },
      "marketSetupInfo(uint256)": {
        "details": "Helper function to show market setup info",
        "returns": {
          "alpha": "The calculated alpha the market [ overround/(n.log(n)) ]",
          "initialCollateral": "The total initial collateral received on market setup [ funding ]",
          "initialShares": "The total initial shares minted for each outcome [ qi ]",
          "outcomes": "Total amount of possible outcomes of the market [ n ]",
          "sellFeeFactor": "used to mitigate token leaks and calculate sell fees [ 1/sellFeeFactor ]"
        }
      },
      "marketSharesInfo(uint256)": {
        "details": "Helper function to show general market shares info",
        "params": {
          "marketId": "unique market identifier"
        },
        "returns": {
          "buys": "Buys counter of the market",
          "cost": "Total redeemed shares of the reported outcome",
          "redeemed": "Total redeemed shares of the reported outcome",
          "sells": "Sells counter of the market",
          "sharesBalances": "All shares balances (indexed by outcome)",
          "totalShares": "Current total shares minted for all outcomes of the market"
        }
      },
      "ownedMarketBuy(uint256,uint256,int128,uint256)": {
        "params": {
          "marketId": "Unique market identifier to trade",
          "maxAmountIn": "Max amount of collateral tokens willing to spend (slippage protection)",
          "outcome": "The outcome index of which shares are being bought (e.g.: 1 for YES, 2 for NO)",
          "sharesAmount": "Number of outcome shares to buy (as a signed 64.64-bit fixed point number)"
        },
        "returns": {
          "amountIn": "Actual amount of collateral tokens spent on the trade"
        }
      },
      "renounceRole(bytes32,address)": {
        "details": "Revokes `role` from the calling account. Roles are often managed via {grantRole} and {revokeRole}: this function's purpose is to provide a mechanism for accounts to lose their privileges if they are compromised (such as when a trusted device is misplaced). If the calling account had been granted `role`, emits a {RoleRevoked} event. Requirements: - the caller must be `account`."
      },
      "revokeRole(bytes32,address)": {
        "details": "Revokes `role` from `account`. If `account` had been granted `role`, emits a {RoleRevoked} event. Requirements: - the caller must have ``role``'s admin role."
      },
      "updateMarket(uint256,string,string,string,string,string,address,uint256,uint256,address,int256)": {
        "details": "Pass empty strings or address(0) to skip updating specific fields"
      },
      "withdrawMarketCollateral(uint256)": {
        "details": "Only the registered operator for the specific market can withdraw its collateral.",
        "params": {
          "marketId": "Unique market identifier"
        },
        "returns": {
          "amount": "Total collateral withdrawn (after protocol fee deduction, if applicable)"
        }
      }
    },
    "title": "PrecogMaster: Manager and factory of Precog markets",
    "version": 1
  },
  "userdoc": {
    "kind": "user",
    "methods": {
      "addAdmin(address)": {
        "notice": "Grants admin role to an account "
      },
      "addAllowedCollateral(address)": {
        "notice": "Whitelists a collateral token for market creation "
      },
      "addAllowedOracle(address)": {
        "notice": "Whitelists an oracle for market creation "
      },
      "addAllowedReceiver(address)": {
        "notice": "Whitelists an address to receive market collateral withdrawals "
      },
      "addCaller(address)": {
        "notice": "Grants caller role to an account "
      },
      "addMarketOperator(address)": {
        "notice": "Grants market operator role "
      },
      "addOwnedCollateral(address)": {
        "notice": "Registers a collateral token owned by this contract "
      },
      "buyMarketSharesFor(address,uint256,uint256,int128,uint256,uint256,uint256,bytes)": {
        "notice": "Buys shares on behalf of another account using Permit2 signature (operator-only)"
      },
      "buyMarketSharesForWithPayer(address,address,uint256,uint256,int128,uint256,uint256,uint256,bytes)": {
        "notice": "Buys shares for an account with separate payer (account gets shares, payer pays) "
      },
      "createCustomMarket((string,string,string,string,string,address,address,address,uint256,uint256,address),(address,uint256,uint256,uint256,int256,uint256,address))": {
        "notice": "Creates market without validations (trusted protocol callers) "
      },
      "createMarket((string,string,string,string,string,address,address,address,uint256,uint256,address),(address,uint256,uint256,uint256,int256,uint256,address))": {
        "notice": "Creates a new prediction market with the specified configuration"
      },
      "getMarketsConfigs()": {
        "notice": "Gets the global market creation configuration and protocol parameters"
      },
      "marketAccountInfo(uint256,address)": {
        "notice": "Gets market account information for a specific market"
      },
      "marketBuy(uint256,uint256,int128,uint256)": {
        "notice": "Buys shares for the specified outcome in the desired market"
      },
      "marketBuyPrice(uint256,uint256,int128)": {
        "notice": "Gets the cost of buying the specified amount of outcome shares in the desired market"
      },
      "marketBuyWithPermit(uint256,uint256,int128,uint256,uint256,uint8,bytes32,bytes32)": {
        "notice": "Buys shares using EIP-2612 permit signature for gasless approval (advanced, gas-optimized path)"
      },
      "marketBuyWithPermit2(uint256,uint256,int128,uint256,uint256,uint256,bytes)": {
        "notice": "Buys shares using Permit2 signature for gasless approval (single transaction, any token)"
      },
      "marketCollateralInfo(uint256)": {
        "notice": "Gets collateral token information for a specific market"
      },
      "marketPrices(uint256)": {
        "notice": "Gets market buy and sell prices for all outcomes of the desired market"
      },
      "marketRedeemShares(uint256)": {
        "notice": "Redeems the total sender shares in the desired market"
      },
      "marketResultInfo(uint256)": {
        "notice": "Gets market result summary of the desired market"
      },
      "marketSell(uint256,uint256,int128,uint256)": {
        "notice": "Sells shares for the specified outcome in the desired market"
      },
      "marketSellPrice(uint256,uint256,int128)": {
        "notice": "Gets the return from selling the specified amount of outcome shares in the desired market"
      },
      "marketSetupInfo(uint256)": {
        "notice": "Gets the market setup parameters"
      },
      "marketSharesInfo(uint256)": {
        "notice": "Gets the current market state info of the desired market"
      },
      "marketTransferOwnership(uint256,address)": {
        "notice": "Transfers ownership of a market contract "
      },
      "marketWithdraw(uint256,address)": {
        "notice": "Withdraws accidentally sent non-collateral tokens from a market contract "
      },
      "ownedMarketBuy(uint256,uint256,int128,uint256)": {
        "notice": "Buys shares for the specified outcome in a owned collateralized market (advanced, non-approve path)"
      },
      "ownedTokenBurn(address,address,uint256)": {
        "notice": "Burns owned collateral tokens "
      },
      "ownedTokenMint(address,address,uint256)": {
        "notice": "Mints owned collateral tokens "
      },
      "ownedTokenMove(address,address,address,uint256)": {
        "notice": "Moves owned collateral tokens between addresses "
      },
      "ownedTokenTransferOwnership(address,address)": {
        "notice": "Transfers ownership of an owned collateral token "
      },
      "removeAdmin(address)": {
        "notice": "Revokes admin role from an account "
      },
      "removeAllowedCollateral(address)": {
        "notice": "Removes a collateral token from the whitelist "
      },
      "removeAllowedOracle(address)": {
        "notice": "Removes an oracle from the whitelist "
      },
      "removeAllowedReceiver(address)": {
        "notice": "Removes an address from the allowed receivers whitelist "
      },
      "removeCaller(address)": {
        "notice": "Revokes caller role from an account "
      },
      "removeMarketOperator(address)": {
        "notice": "Revoke market operator role "
      },
      "removeOwnedCollateral(address)": {
        "notice": "Unregisters an owned collateral token "
      },
      "setBaseMarket(address)": {
        "notice": "Sets the base market implementation for cloning "
      },
      "setMarketMinOverround(uint256)": {
        "notice": "Sets the minimum overround required for market creation "
      },
      "setMarketMinSellFeeFactor(int256)": {
        "notice": "Sets the minimum sell fee factor allowed for markets "
      },
      "setProtocolFeeFactor(uint256)": {
        "notice": "Sets the protocol fee factor (ProtocolFee = 1 / feeFactor) "
      },
      "updateMarket(uint256,string,string,string,string,string,address,uint256,uint256,address,int256)": {
        "notice": "Updates market metadata and configuration (emergency use only)"
      },
      "withdraw(address)": {
        "notice": "Withdraws ETH or tokens from the Master contract "
      },
      "withdrawMarketCollateral(uint256)": {
        "notice": "Withdraws available collateral from a closed market (initial funding + profits)"
      },
      "withdrawMarketCollateralTo(uint256,address)": {
        "notice": "Withdraws market collateral to whitelisted receiver (trusted protocol callers) "
      }
    },
    "version": 1
  },
  "storageLayout": {
    "storage": [
      {
        "astId": 22,
        "contract": "contracts/PrecogMasterV8.sol:PrecogMasterV8",
        "label": "_roles",
        "offset": 0,
        "slot": "0",
        "type": "t_mapping(t_bytes32,t_struct(RoleData)18_storage)"
      },
      {
        "astId": 14346,
        "contract": "contracts/PrecogMasterV8.sol:PrecogMasterV8",
        "label": "createdMarkets",
        "offset": 0,
        "slot": "1",
        "type": "t_uint256"
      },
      {
        "astId": 14350,
        "contract": "contracts/PrecogMasterV8.sol:PrecogMasterV8",
        "label": "markets",
        "offset": 0,
        "slot": "2",
        "type": "t_mapping(t_uint256,t_struct(MarketData)14329_storage)"
      },
      {
        "astId": 14354,
        "contract": "contracts/PrecogMasterV8.sol:PrecogMasterV8",
        "label": "allowedOracles",
        "offset": 0,
        "slot": "3",
        "type": "t_mapping(t_address,t_bool)"
      },
      {
        "astId": 14358,
        "contract": "contracts/PrecogMasterV8.sol:PrecogMasterV8",
        "label": "allowedCollaterals",
        "offset": 0,
        "slot": "4",
        "type": "t_mapping(t_address,t_bool)"
      },
      {
        "astId": 14362,
        "contract": "contracts/PrecogMasterV8.sol:PrecogMasterV8",
        "label": "allowedReceivers",
        "offset": 0,
        "slot": "5",
        "type": "t_mapping(t_address,t_bool)"
      },
      {
        "astId": 14366,
        "contract": "contracts/PrecogMasterV8.sol:PrecogMasterV8",
        "label": "ownedCollaterals",
        "offset": 0,
        "slot": "6",
        "type": "t_mapping(t_address,t_bool)"
      },
      {
        "astId": 14368,
        "contract": "contracts/PrecogMasterV8.sol:PrecogMasterV8",
        "label": "baseMarket",
        "offset": 0,
        "slot": "7",
        "type": "t_address"
      },
      {
        "astId": 14370,
        "contract": "contracts/PrecogMasterV8.sol:PrecogMasterV8",
        "label": "marketMinOverround",
        "offset": 0,
        "slot": "8",
        "type": "t_uint256"
      },
      {
        "astId": 14372,
        "contract": "contracts/PrecogMasterV8.sol:PrecogMasterV8",
        "label": "marketMinSellFeeFactor",
        "offset": 0,
        "slot": "9",
        "type": "t_int256"
      },
      {
        "astId": 14374,
        "contract": "contracts/PrecogMasterV8.sol:PrecogMasterV8",
        "label": "protocolFeeFactor",
        "offset": 0,
        "slot": "10",
        "type": "t_uint256"
      },
      {
        "astId": 14376,
        "contract": "contracts/PrecogMasterV8.sol:PrecogMasterV8",
        "label": "unlocked",
        "offset": 0,
        "slot": "11",
        "type": "t_uint8"
      }
    ],
    "types": {
      "t_address": {
        "encoding": "inplace",
        "label": "address",
        "numberOfBytes": "20"
      },
      "t_array(t_bytes32)dyn_storage": {
        "base": "t_bytes32",
        "encoding": "dynamic_array",
        "label": "bytes32[]",
        "numberOfBytes": "32"
      },
      "t_bool": {
        "encoding": "inplace",
        "label": "bool",
        "numberOfBytes": "1"
      },
      "t_bytes32": {
        "encoding": "inplace",
        "label": "bytes32",
        "numberOfBytes": "32"
      },
      "t_int256": {
        "encoding": "inplace",
        "label": "int256",
        "numberOfBytes": "32"
      },
      "t_mapping(t_address,t_bool)": {
        "encoding": "mapping",
        "key": "t_address",
        "label": "mapping(address => bool)",
        "numberOfBytes": "32",
        "value": "t_bool"
      },
      "t_mapping(t_bytes32,t_struct(RoleData)18_storage)": {
        "encoding": "mapping",
        "key": "t_bytes32",
        "label": "mapping(bytes32 => struct AccessControl.RoleData)",
        "numberOfBytes": "32",
        "value": "t_struct(RoleData)18_storage"
      },
      "t_mapping(t_bytes32,t_uint256)": {
        "encoding": "mapping",
        "key": "t_bytes32",
        "label": "mapping(bytes32 => uint256)",
        "numberOfBytes": "32",
        "value": "t_uint256"
      },
      "t_mapping(t_uint256,t_struct(MarketData)14329_storage)": {
        "encoding": "mapping",
        "key": "t_uint256",
        "label": "mapping(uint256 => struct PrecogMasterV8.MarketData)",
        "numberOfBytes": "32",
        "value": "t_struct(MarketData)14329_storage"
      },
      "t_string_storage": {
        "encoding": "bytes",
        "label": "string",
        "numberOfBytes": "32"
      },
      "t_struct(AddressSet)2772_storage": {
        "encoding": "inplace",
        "label": "struct EnumerableSet.AddressSet",
        "members": [
          {
            "astId": 2771,
            "contract": "contracts/PrecogMasterV8.sol:PrecogMasterV8",
            "label": "_inner",
            "offset": 0,
            "slot": "0",
            "type": "t_struct(Set)2507_storage"
          }
        ],
        "numberOfBytes": "64"
      },
      "t_struct(MarketData)14329_storage": {
        "encoding": "inplace",
        "label": "struct PrecogMasterV8.MarketData",
        "members": [
          {
            "astId": 14308,
            "contract": "contracts/PrecogMasterV8.sol:PrecogMasterV8",
            "label": "question",
            "offset": 0,
            "slot": "0",
            "type": "t_string_storage"
          },
          {
            "astId": 14310,
            "contract": "contracts/PrecogMasterV8.sol:PrecogMasterV8",
            "label": "resolutionCriteria",
            "offset": 0,
            "slot": "1",
            "type": "t_string_storage"
          },
          {
            "astId": 14312,
            "contract": "contracts/PrecogMasterV8.sol:PrecogMasterV8",
            "label": "imageURL",
            "offset": 0,
            "slot": "2",
            "type": "t_string_storage"
          },
          {
            "astId": 14314,
            "contract": "contracts/PrecogMasterV8.sol:PrecogMasterV8",
            "label": "category",
            "offset": 0,
            "slot": "3",
            "type": "t_string_storage"
          },
          {
            "astId": 14316,
            "contract": "contracts/PrecogMasterV8.sol:PrecogMasterV8",
            "label": "outcomes",
            "offset": 0,
            "slot": "4",
            "type": "t_string_storage"
          },
          {
            "astId": 14318,
            "contract": "contracts/PrecogMasterV8.sol:PrecogMasterV8",
            "label": "creator",
            "offset": 0,
            "slot": "5",
            "type": "t_address"
          },
          {
            "astId": 14320,
            "contract": "contracts/PrecogMasterV8.sol:PrecogMasterV8",
            "label": "operator",
            "offset": 0,
            "slot": "6",
            "type": "t_address"
          },
          {
            "astId": 14322,
            "contract": "contracts/PrecogMasterV8.sol:PrecogMasterV8",
            "label": "market",
            "offset": 0,
            "slot": "7",
            "type": "t_address"
          },
          {
            "astId": 14324,
            "contract": "contracts/PrecogMasterV8.sol:PrecogMasterV8",
            "label": "startTimestamp",
            "offset": 0,
            "slot": "8",
            "type": "t_uint256"
          },
          {
            "astId": 14326,
            "contract": "contracts/PrecogMasterV8.sol:PrecogMasterV8",
            "label": "endTimestamp",
            "offset": 0,
            "slot": "9",
            "type": "t_uint256"
          },
          {
            "astId": 14328,
            "contract": "contracts/PrecogMasterV8.sol:PrecogMasterV8",
            "label": "collateral",
            "offset": 0,
            "slot": "10",
            "type": "t_address"
          }
        ],
        "numberOfBytes": "352"
      },
      "t_struct(RoleData)18_storage": {
        "encoding": "inplace",
        "label": "struct AccessControl.RoleData",
        "members": [
          {
            "astId": 15,
            "contract": "contracts/PrecogMasterV8.sol:PrecogMasterV8",
            "label": "members",
            "offset": 0,
            "slot": "0",
            "type": "t_struct(AddressSet)2772_storage"
          },
          {
            "astId": 17,
            "contract": "contracts/PrecogMasterV8.sol:PrecogMasterV8",
            "label": "adminRole",
            "offset": 0,
            "slot": "2",
            "type": "t_bytes32"
          }
        ],
        "numberOfBytes": "96"
      },
      "t_struct(Set)2507_storage": {
        "encoding": "inplace",
        "label": "struct EnumerableSet.Set",
        "members": [
          {
            "astId": 2502,
            "contract": "contracts/PrecogMasterV8.sol:PrecogMasterV8",
            "label": "_values",
            "offset": 0,
            "slot": "0",
            "type": "t_array(t_bytes32)dyn_storage"
          },
          {
            "astId": 2506,
            "contract": "contracts/PrecogMasterV8.sol:PrecogMasterV8",
            "label": "_indexes",
            "offset": 0,
            "slot": "1",
            "type": "t_mapping(t_bytes32,t_uint256)"
          }
        ],
        "numberOfBytes": "64"
      },
      "t_uint256": {
        "encoding": "inplace",
        "label": "uint256",
        "numberOfBytes": "32"
      },
      "t_uint8": {
        "encoding": "inplace",
        "label": "uint8",
        "numberOfBytes": "1"
      }
    }
  }
}